{
  "address": "0x97B1d885e0e8454579f5511FE158d80c975F74F0",
  "abi": [
    {
      "inputs": [
        {
          "internalType": "address",
          "name": "_vrfCoordinator",
          "type": "address"
        },
        {
          "internalType": "address",
          "name": "_linkToken",
          "type": "address"
        },
        {
          "internalType": "bytes32",
          "name": "_keyHash",
          "type": "bytes32"
        },
        {
          "internalType": "uint256",
          "name": "_fee",
          "type": "uint256"
        }
      ],
      "stateMutability": "nonpayable",
      "type": "constructor"
    },
    {
      "anonymous": false,
      "inputs": [
        {
          "indexed": true,
          "internalType": "address",
          "name": "owner",
          "type": "address"
        },
        {
          "indexed": true,
          "internalType": "address",
          "name": "approved",
          "type": "address"
        },
        {
          "indexed": true,
          "internalType": "uint256",
          "name": "tokenId",
          "type": "uint256"
        }
      ],
      "name": "Approval",
      "type": "event"
    },
    {
      "anonymous": false,
      "inputs": [
        {
          "indexed": true,
          "internalType": "address",
          "name": "owner",
          "type": "address"
        },
        {
          "indexed": true,
          "internalType": "address",
          "name": "operator",
          "type": "address"
        },
        {
          "indexed": false,
          "internalType": "bool",
          "name": "approved",
          "type": "bool"
        }
      ],
      "name": "ApprovalForAll",
      "type": "event"
    },
    {
      "anonymous": false,
      "inputs": [
        {
          "indexed": true,
          "internalType": "uint256",
          "name": "tokenId",
          "type": "uint256"
        },
        {
          "indexed": false,
          "internalType": "string",
          "name": "tokenURI",
          "type": "string"
        }
      ],
      "name": "CreatedRandomSVG",
      "type": "event"
    },
    {
      "anonymous": false,
      "inputs": [
        {
          "indexed": true,
          "internalType": "uint256",
          "name": "tokenId",
          "type": "uint256"
        },
        {
          "indexed": false,
          "internalType": "uint256",
          "name": "randomNumber",
          "type": "uint256"
        }
      ],
      "name": "CreatedUnfinishedRandomSVG",
      "type": "event"
    },
    {
      "anonymous": false,
      "inputs": [
        {
          "indexed": true,
          "internalType": "bytes32",
          "name": "requestId",
          "type": "bytes32"
        },
        {
          "indexed": true,
          "internalType": "uint256",
          "name": "tokenId",
          "type": "uint256"
        }
      ],
      "name": "RequestedRandomSVG",
      "type": "event"
    },
    {
      "anonymous": false,
      "inputs": [
        {
          "indexed": true,
          "internalType": "address",
          "name": "from",
          "type": "address"
        },
        {
          "indexed": true,
          "internalType": "address",
          "name": "to",
          "type": "address"
        },
        {
          "indexed": true,
          "internalType": "uint256",
          "name": "tokenId",
          "type": "uint256"
        }
      ],
      "name": "Transfer",
      "type": "event"
    },
    {
      "inputs": [
        {
          "internalType": "address",
          "name": "to",
          "type": "address"
        },
        {
          "internalType": "uint256",
          "name": "tokenId",
          "type": "uint256"
        }
      ],
      "name": "approve",
      "outputs": [],
      "stateMutability": "nonpayable",
      "type": "function"
    },
    {
      "inputs": [
        {
          "internalType": "address",
          "name": "owner",
          "type": "address"
        }
      ],
      "name": "balanceOf",
      "outputs": [
        {
          "internalType": "uint256",
          "name": "",
          "type": "uint256"
        }
      ],
      "stateMutability": "view",
      "type": "function"
    },
    {
      "inputs": [
        {
          "internalType": "uint256",
          "name": "",
          "type": "uint256"
        }
      ],
      "name": "colors",
      "outputs": [
        {
          "internalType": "string",
          "name": "",
          "type": "string"
        }
      ],
      "stateMutability": "view",
      "type": "function"
    },
    {
      "inputs": [],
      "name": "create",
      "outputs": [
        {
          "internalType": "bytes32",
          "name": "requestId",
          "type": "bytes32"
        }
      ],
      "stateMutability": "nonpayable",
      "type": "function"
    },
    {
      "inputs": [],
      "name": "fee",
      "outputs": [
        {
          "internalType": "uint256",
          "name": "",
          "type": "uint256"
        }
      ],
      "stateMutability": "view",
      "type": "function"
    },
    {
      "inputs": [
        {
          "internalType": "uint256",
          "name": "_tokenId",
          "type": "uint256"
        }
      ],
      "name": "finishMint",
      "outputs": [],
      "stateMutability": "nonpayable",
      "type": "function"
    },
    {
      "inputs": [
        {
          "internalType": "string",
          "name": "imageURI",
          "type": "string"
        }
      ],
      "name": "formatTokenURI",
      "outputs": [
        {
          "internalType": "string",
          "name": "",
          "type": "string"
        }
      ],
      "stateMutability": "pure",
      "type": "function"
    },
    {
      "inputs": [
        {
          "internalType": "uint256",
          "name": "_randomNumber",
          "type": "uint256"
        }
      ],
      "name": "generatePath",
      "outputs": [
        {
          "internalType": "string",
          "name": "pathSvg",
          "type": "string"
        }
      ],
      "stateMutability": "view",
      "type": "function"
    },
    {
      "inputs": [
        {
          "internalType": "uint256",
          "name": "_randomNumber",
          "type": "uint256"
        }
      ],
      "name": "generatePathCommand",
      "outputs": [
        {
          "internalType": "string",
          "name": "pathCommand",
          "type": "string"
        }
      ],
      "stateMutability": "view",
      "type": "function"
    },
    {
      "inputs": [
        {
          "internalType": "uint256",
          "name": "_randomNumber",
          "type": "uint256"
        }
      ],
      "name": "generateSVG",
      "outputs": [
        {
          "internalType": "string",
          "name": "finalSvg",
          "type": "string"
        }
      ],
      "stateMutability": "view",
      "type": "function"
    },
    {
      "inputs": [
        {
          "internalType": "uint256",
          "name": "tokenId",
          "type": "uint256"
        }
      ],
      "name": "getApproved",
      "outputs": [
        {
          "internalType": "address",
          "name": "",
          "type": "address"
        }
      ],
      "stateMutability": "view",
      "type": "function"
    },
    {
      "inputs": [
        {
          "internalType": "address",
          "name": "owner",
          "type": "address"
        },
        {
          "internalType": "address",
          "name": "operator",
          "type": "address"
        }
      ],
      "name": "isApprovedForAll",
      "outputs": [
        {
          "internalType": "bool",
          "name": "",
          "type": "bool"
        }
      ],
      "stateMutability": "view",
      "type": "function"
    },
    {
      "inputs": [],
      "name": "keyHash",
      "outputs": [
        {
          "internalType": "bytes32",
          "name": "",
          "type": "bytes32"
        }
      ],
      "stateMutability": "view",
      "type": "function"
    },
    {
      "inputs": [],
      "name": "maxNumberOfPathCommands",
      "outputs": [
        {
          "internalType": "uint256",
          "name": "",
          "type": "uint256"
        }
      ],
      "stateMutability": "view",
      "type": "function"
    },
    {
      "inputs": [],
      "name": "maxNumberOfPaths",
      "outputs": [
        {
          "internalType": "uint256",
          "name": "",
          "type": "uint256"
        }
      ],
      "stateMutability": "view",
      "type": "function"
    },
    {
      "inputs": [],
      "name": "name",
      "outputs": [
        {
          "internalType": "string",
          "name": "",
          "type": "string"
        }
      ],
      "stateMutability": "view",
      "type": "function"
    },
    {
      "inputs": [
        {
          "internalType": "uint256",
          "name": "tokenId",
          "type": "uint256"
        }
      ],
      "name": "ownerOf",
      "outputs": [
        {
          "internalType": "address",
          "name": "",
          "type": "address"
        }
      ],
      "stateMutability": "view",
      "type": "function"
    },
    {
      "inputs": [
        {
          "internalType": "uint256",
          "name": "",
          "type": "uint256"
        }
      ],
      "name": "pathCommands",
      "outputs": [
        {
          "internalType": "string",
          "name": "",
          "type": "string"
        }
      ],
      "stateMutability": "view",
      "type": "function"
    },
    {
      "inputs": [
        {
          "internalType": "bytes32",
          "name": "requestId",
          "type": "bytes32"
        },
        {
          "internalType": "uint256",
          "name": "randomness",
          "type": "uint256"
        }
      ],
      "name": "rawFulfillRandomness",
      "outputs": [],
      "stateMutability": "nonpayable",
      "type": "function"
    },
    {
      "inputs": [
        {
          "internalType": "bytes32",
          "name": "",
          "type": "bytes32"
        }
      ],
      "name": "requestIdToSender",
      "outputs": [
        {
          "internalType": "address",
          "name": "",
          "type": "address"
        }
      ],
      "stateMutability": "view",
      "type": "function"
    },
    {
      "inputs": [
        {
          "internalType": "bytes32",
          "name": "",
          "type": "bytes32"
        }
      ],
      "name": "requestIdToTokenId",
      "outputs": [
        {
          "internalType": "uint256",
          "name": "",
          "type": "uint256"
        }
      ],
      "stateMutability": "view",
      "type": "function"
    },
    {
      "inputs": [
        {
          "internalType": "address",
          "name": "from",
          "type": "address"
        },
        {
          "internalType": "address",
          "name": "to",
          "type": "address"
        },
        {
          "internalType": "uint256",
          "name": "tokenId",
          "type": "uint256"
        }
      ],
      "name": "safeTransferFrom",
      "outputs": [],
      "stateMutability": "nonpayable",
      "type": "function"
    },
    {
      "inputs": [
        {
          "internalType": "address",
          "name": "from",
          "type": "address"
        },
        {
          "internalType": "address",
          "name": "to",
          "type": "address"
        },
        {
          "internalType": "uint256",
          "name": "tokenId",
          "type": "uint256"
        },
        {
          "internalType": "bytes",
          "name": "data",
          "type": "bytes"
        }
      ],
      "name": "safeTransferFrom",
      "outputs": [],
      "stateMutability": "nonpayable",
      "type": "function"
    },
    {
      "inputs": [
        {
          "internalType": "address",
          "name": "operator",
          "type": "address"
        },
        {
          "internalType": "bool",
          "name": "approved",
          "type": "bool"
        }
      ],
      "name": "setApprovalForAll",
      "outputs": [],
      "stateMutability": "nonpayable",
      "type": "function"
    },
    {
      "inputs": [],
      "name": "size",
      "outputs": [
        {
          "internalType": "uint256",
          "name": "",
          "type": "uint256"
        }
      ],
      "stateMutability": "view",
      "type": "function"
    },
    {
      "inputs": [
        {
          "internalType": "bytes4",
          "name": "interfaceId",
          "type": "bytes4"
        }
      ],
      "name": "supportsInterface",
      "outputs": [
        {
          "internalType": "bool",
          "name": "",
          "type": "bool"
        }
      ],
      "stateMutability": "view",
      "type": "function"
    },
    {
      "inputs": [
        {
          "internalType": "string",
          "name": "svg",
          "type": "string"
        }
      ],
      "name": "svgToImageURI",
      "outputs": [
        {
          "internalType": "string",
          "name": "",
          "type": "string"
        }
      ],
      "stateMutability": "pure",
      "type": "function"
    },
    {
      "inputs": [],
      "name": "symbol",
      "outputs": [
        {
          "internalType": "string",
          "name": "",
          "type": "string"
        }
      ],
      "stateMutability": "view",
      "type": "function"
    },
    {
      "inputs": [],
      "name": "tokenCounter",
      "outputs": [
        {
          "internalType": "uint256",
          "name": "",
          "type": "uint256"
        }
      ],
      "stateMutability": "view",
      "type": "function"
    },
    {
      "inputs": [
        {
          "internalType": "uint256",
          "name": "",
          "type": "uint256"
        }
      ],
      "name": "tokenIdToRandomNumber",
      "outputs": [
        {
          "internalType": "uint256",
          "name": "",
          "type": "uint256"
        }
      ],
      "stateMutability": "view",
      "type": "function"
    },
    {
      "inputs": [
        {
          "internalType": "uint256",
          "name": "tokenId",
          "type": "uint256"
        }
      ],
      "name": "tokenURI",
      "outputs": [
        {
          "internalType": "string",
          "name": "",
          "type": "string"
        }
      ],
      "stateMutability": "view",
      "type": "function"
    },
    {
      "inputs": [
        {
          "internalType": "address",
          "name": "from",
          "type": "address"
        },
        {
          "internalType": "address",
          "name": "to",
          "type": "address"
        },
        {
          "internalType": "uint256",
          "name": "tokenId",
          "type": "uint256"
        }
      ],
      "name": "transferFrom",
      "outputs": [],
      "stateMutability": "nonpayable",
      "type": "function"
    }
  ],
  "transactionHash": "0x732e58a3bfa284db1accc06083462aa36a546c76590e60af0a5512ab5182686f",
  "args": [
    "0xb3dCcb4Cf7a26f6cf6B120Cf5A73875B7BBc655B",
    "0x01BE23585060835E02B77ef475b0Cc51aA1e0709",
    "0x2ed0feb3e7fd2022120aa84fab1945545a9f2ffc9076fd6156fa96eaff4c1311",
    "100000000000000000"
  ],
  "numDeployments": 1,
  "solcInputHash": "a281dbb1a74067b498b87deafbb29ef0",
  "bytecode": "0x60c06040523480156200001157600080fd5b5060405162004e3038038062004e308339818101604052810190620000379190620005c3565b83836040518060400160405280600d81526020017f52616e646f6d205356474e4654000000000000000000000000000000000000008152506040518060400160405280600581526020017f52534e46540000000000000000000000000000000000000000000000000000008152508160009080519060200190620000bd92919062000392565b508060019080519060200190620000d692919062000392565b5050508173ffffffffffffffffffffffffffffffffffffffff1660a08173ffffffffffffffffffffffffffffffffffffffff1660601b815250508073ffffffffffffffffffffffffffffffffffffffff1660808173ffffffffffffffffffffffffffffffffffffffff1660601b8152505050506000600a819055508160088190555080600981905550600a600b819055506005600c819055506101f4600d8190555060405180604001604052806040518060400160405280600181526020017f4d0000000000000000000000000000000000000000000000000000000000000081525081526020016040518060400160405280600181526020017f4c00000000000000000000000000000000000000000000000000000000000000815250815250600e9060026200020992919062000423565b506040518060c001604052806040518060400160405280600381526020017f726564000000000000000000000000000000000000000000000000000000000081525081526020016040518060400160405280600481526020017f626c75650000000000000000000000000000000000000000000000000000000081525081526020016040518060400160405280600581526020017f677265656e00000000000000000000000000000000000000000000000000000081525081526020016040518060400160405280600681526020017f79656c6c6f77000000000000000000000000000000000000000000000000000081525081526020016040518060400160405280600581526020017f626c61636b00000000000000000000000000000000000000000000000000000081525081526020016040518060400160405280600581526020017f7768697465000000000000000000000000000000000000000000000000000000815250815250600f906006620003879291906200048a565b50505050506200072a565b828054620003a09062000677565b90600052602060002090601f016020900481019282620003c4576000855562000410565b82601f10620003df57805160ff191683800117855562000410565b8280016001018555821562000410579182015b828111156200040f578251825591602001919060010190620003f2565b5b5090506200041f9190620004f1565b5090565b82805482825590600052602060002090810192821562000477579160200282015b82811115620004765782518290805190602001906200046592919062000392565b509160200191906001019062000444565b5b50905062000486919062000510565b5090565b828054828255906000526020600020908101928215620004de579160200282015b82811115620004dd578251829080519060200190620004cc92919062000392565b5091602001919060010190620004ab565b5b509050620004ed919062000510565b5090565b5b808211156200050c576000816000905550600101620004f2565b5090565b5b808211156200053457600081816200052a919062000538565b5060010162000511565b5090565b508054620005469062000677565b6000825580601f106200055a57506200057b565b601f0160209004906000526020600020908101906200057a9190620004f1565b5b50565b6000815190506200058f81620006dc565b92915050565b600081519050620005a681620006f6565b92915050565b600081519050620005bd8162000710565b92915050565b60008060008060808587031215620005da57600080fd5b6000620005ea878288016200057e565b9450506020620005fd878288016200057e565b9350506040620006108782880162000595565b92505060606200062387828801620005ac565b91505092959194509250565b60006200063c826200064d565b9050919050565b6000819050919050565b600073ffffffffffffffffffffffffffffffffffffffff82169050919050565b6000819050919050565b600060028204905060018216806200069057607f821691505b60208210811415620006a757620006a6620006ad565b5b50919050565b7f4e487b7100000000000000000000000000000000000000000000000000000000600052602260045260246000fd5b620006e7816200062f565b8114620006f357600080fd5b50565b620007018162000643565b81146200070d57600080fd5b50565b6200071b816200066d565b81146200072757600080fd5b50565b60805160601c60a05160601c6146d36200075d600039600081816111220152612409015260006123cd01526146d36000f3fe608060405234801561001057600080fd5b50600436106101f05760003560e01c806371aee1931161010f578063bd11f69d116100a2578063d082e38111610071578063d082e3811461063d578063ddca3f431461065b578063e985e9c514610679578063efc81a8c146106a9576101f0565b8063bd11f69d1461058f578063c21bf36f146105bf578063c68b49d1146105dd578063c87b56dd1461060d576101f0565b806395d89b41116100de57806395d89b41146105095780639c1cd79514610527578063a22cb46514610557578063b88d4fde14610573576101f0565b806371aee1931461046f57806394985ddd1461049f578063949d225d146104bb578063955968d4146104d9576101f0565b806333af598911610187578063624194c711610156578063624194c7146103c35780636352211e146103df5780636dcee4ca1461040f57806370a082311461043f576101f0565b806333af59891461033b57806342842e0e1461036b57806348e896ab1461038757806361728f39146103a5576101f0565b8063219c0eee116101c3578063219c0eee1461028f57806322881f88146102bf57806323b872dd146102ef57806330d871c61461030b576101f0565b806301ffc9a7146101f557806306fdde0314610225578063081812fc14610243578063095ea7b314610273575b600080fd5b61020f600480360381019061020a9190613005565b6106c7565b60405161021c91906137fb565b60405180910390f35b61022d6107a9565b60405161023a919061389f565b60405180910390f35b61025d60048036038101906102589190613098565b61083b565b60405161026a9190613756565b60405180910390f35b61028d60048036038101906102889190612f3b565b610881565b005b6102a960048036038101906102a49190612fa0565b610999565b6040516102b69190613756565b60405180910390f35b6102d960048036038101906102d49190612fa0565b6109cc565b6040516102e69190613ac1565b60405180910390f35b61030960048036038101906103049190612e35565b6109e4565b005b61032560048036038101906103209190613057565b610a44565b604051610332919061389f565b60405180910390f35b61035560048036038101906103509190613098565b610ad7565b604051610362919061389f565b60405180910390f35b61038560048036038101906103809190612e35565b610cc9565b005b61038f610ce9565b60405161039c9190613ac1565b60405180910390f35b6103ad610cef565b6040516103ba9190613816565b60405180910390f35b6103dd60048036038101906103d89190613098565b610cf5565b005b6103f960048036038101906103f49190613098565b610e64565b6040516104069190613756565b60405180910390f35b61042960048036038101906104249190613098565b610f16565b604051610436919061389f565b60405180910390f35b61045960048036038101906104549190612dd0565b611018565b6040516104669190613ac1565b60405180910390f35b61048960048036038101906104849190613057565b6110d0565b604051610496919061389f565b60405180910390f35b6104b960048036038101906104b49190612fc9565b611120565b005b6104c36111bc565b6040516104d09190613ac1565b60405180910390f35b6104f360048036038101906104ee9190613098565b6111c2565b604051610500919061389f565b60405180910390f35b61051161126e565b60405161051e919061389f565b60405180910390f35b610541600480360381019061053c9190613098565b611300565b60405161054e9190613ac1565b60405180910390f35b610571600480360381019061056c9190612eff565b611318565b005b61058d60048036038101906105889190612e84565b61132e565b005b6105a960048036038101906105a49190613098565b611390565b6040516105b6919061389f565b60405180910390f35b6105c761143c565b6040516105d49190613ac1565b60405180910390f35b6105f760048036038101906105f29190613098565b611442565b604051610604919061389f565b60405180910390f35b61062760048036038101906106229190613098565b6115f5565b604051610634919061389f565b60405180910390f35b610645611708565b6040516106529190613ac1565b60405180910390f35b61066361170e565b6040516106709190613ac1565b60405180910390f35b610693600480360381019061068e9190612df9565b611714565b6040516106a091906137fb565b60405180910390f35b6106b16117a8565b6040516106be9190613816565b60405180910390f35b60007f80ac58cd000000000000000000000000000000000000000000000000000000007bffffffffffffffffffffffffffffffffffffffffffffffffffffffff1916827bffffffffffffffffffffffffffffffffffffffffffffffffffffffff1916148061079257507f5b5e139f000000000000000000000000000000000000000000000000000000007bffffffffffffffffffffffffffffffffffffffffffffffffffffffff1916827bffffffffffffffffffffffffffffffffffffffffffffffffffffffff1916145b806107a257506107a182611877565b5b9050919050565b6060600080546107b890613de8565b80601f01602080910402602001604051908101604052809291908181526020018280546107e490613de8565b80156108315780601f1061080657610100808354040283529160200191610831565b820191906000526020600020905b81548152906001019060200180831161081457829003601f168201915b5050505050905090565b6000610846826118e1565b6004600083815260200190815260200160002060009054906101000a900473ffffffffffffffffffffffffffffffffffffffff169050919050565b600061088c82610e64565b90508073ffffffffffffffffffffffffffffffffffffffff168373ffffffffffffffffffffffffffffffffffffffff1614156108fd576040517f08c379a00000000000000000000000000000000000000000000000000000000081526004016108f490613a81565b60405180910390fd5b8073ffffffffffffffffffffffffffffffffffffffff1661091c61192c565b73ffffffffffffffffffffffffffffffffffffffff16148061094b575061094a8161094561192c565b611714565b5b61098a576040517f08c379a0000000000000000000000000000000000000000000000000000000008152600401610981906139e1565b60405180910390fd5b6109948383611934565b505050565b60106020528060005260406000206000915054906101000a900473ffffffffffffffffffffffffffffffffffffffff1681565b60116020528060005260406000206000915090505481565b6109f56109ef61192c565b826119ed565b610a34576040517f08c379a0000000000000000000000000000000000000000000000000000000008152600401610a2b90613aa1565b60405180910390fd5b610a3f838383611a82565b505050565b606060006040518060400160405280601a81526020017f646174613a696d6167652f7376672b786d6c3b6261736536342c00000000000081525090506000610aaa84604051602001610a9691906135ce565b604051602081830303815290604052611ce9565b90508181604051602001610abf9291906135e5565b60405160208183030381529060405292505050919050565b606060006001600c5484610aeb9190613ea8565b610af59190613bcf565b90506040518060400160405280600981526020017f3c7061746820643d270000000000000000000000000000000000000000000000815250915060005b81811015610bbd5760008482600d54610b4b9190613bcf565b604051602001610b5c929190613adc565b6040516020818303038152906040528051906020012060001c90506000610b8282611442565b90508481604051602001610b979291906135e5565b604051602081830303815290604052945050508080610bb590613e4b565b915050610b32565b506000600f808054905085610bd29190613ea8565b81548110610c09577f4e487b7100000000000000000000000000000000000000000000000000000000600052603260045260246000fd5b906000526020600020018054610c1e90613de8565b80601f0160208091040260200160405190810160405280929190818152602001828054610c4a90613de8565b8015610c975780601f10610c6c57610100808354040283529160200191610c97565b820191906000526020600020905b815481529060010190602001808311610c7a57829003601f168201915b505050505090508281604051602001610cb1929190613609565b60405160208183030381529060405292505050919050565b610ce48383836040518060200160405280600081525061132e565b505050565b600c5481565b60085481565b6000610d00826115f5565b511115610d42576040517f08c379a0000000000000000000000000000000000000000000000000000000008152600401610d3990613921565b60405180910390fd5b80600a5411610d86576040517f08c379a0000000000000000000000000000000000000000000000000000000008152600401610d7d906139c1565b60405180910390fd5b6000601260008381526020019081526020016000205411610ddc576040517f08c379a0000000000000000000000000000000000000000000000000000000008152600401610dd390613a21565b60405180910390fd5b6000601260008381526020019081526020016000205490506000610dff82610f16565b90506000610e0c82610a44565b90506000610e19826110d0565b9050610e258582611e88565b847f15a6487b7915a7116ce2a61d43b17e9b47484b1931f3c79f2f3d139b307b389384604051610e55919061389f565b60405180910390a25050505050565b6000806002600084815260200190815260200160002060009054906101000a900473ffffffffffffffffffffffffffffffffffffffff169050600073ffffffffffffffffffffffffffffffffffffffff168173ffffffffffffffffffffffffffffffffffffffff161415610f0d576040517f08c379a0000000000000000000000000000000000000000000000000000000008152600401610f0490613a61565b60405180910390fd5b80915050919050565b606060006001600b5484610f2a9190613ea8565b610f349190613bcf565b9050610f41600d54611efc565b610f4c600d54611efc565b604051602001610f5d929190613711565b604051602081830303815290604052915060005b81811015610fef5760008482604051602001610f8e929190613adc565b6040516020818303038152906040528051906020012060001c90506000610fb482610ad7565b90508481604051602001610fc99291906135e5565b604051602081830303815290604052945050508080610fe790613e4b565b915050610f71565b5081604051602001611001919061368a565b604051602081830303815290604052915050919050565b60008073ffffffffffffffffffffffffffffffffffffffff168273ffffffffffffffffffffffffffffffffffffffff161415611089576040517f08c379a000000000000000000000000000000000000000000000000000000000815260040161108090613981565b60405180910390fd5b600360008373ffffffffffffffffffffffffffffffffffffffff1673ffffffffffffffffffffffffffffffffffffffff168152602001908152602001600020549050919050565b60606110fa826040516020016110e691906136ac565b604051602081830303815290604052611ce9565b60405160200161110a91906136ef565b6040516020818303038152906040529050919050565b7f000000000000000000000000000000000000000000000000000000000000000073ffffffffffffffffffffffffffffffffffffffff163373ffffffffffffffffffffffffffffffffffffffff16146111ae576040517f08c379a00000000000000000000000000000000000000000000000000000000081526004016111a590613a41565b60405180910390fd5b6111b882826120d1565b5050565b600d5481565b600e81815481106111d257600080fd5b9060005260206000200160009150905080546111ed90613de8565b80601f016020809104026020016040519081016040528092919081815260200182805461121990613de8565b80156112665780601f1061123b57610100808354040283529160200191611266565b820191906000526020600020905b81548152906001019060200180831161124957829003601f168201915b505050505081565b60606001805461127d90613de8565b80601f01602080910402602001604051908101604052809291908181526020018280546112a990613de8565b80156112f65780601f106112cb576101008083540402835291602001916112f6565b820191906000526020600020905b8154815290600101906020018083116112d957829003601f168201915b5050505050905090565b60126020528060005260406000206000915090505481565b61132a61132361192c565b8383612181565b5050565b61133f61133961192c565b836119ed565b61137e576040517f08c379a000000000000000000000000000000000000000000000000000000000815260040161137590613aa1565b60405180910390fd5b61138a848484846122ee565b50505050565b600f81815481106113a057600080fd5b9060005260206000200160009150905080546113bb90613de8565b80601f01602080910402602001604051908101604052809291908181526020018280546113e790613de8565b80156114345780601f1061140957610100808354040283529160200191611434565b820191906000526020600020905b81548152906001019060200180831161141757829003601f168201915b505050505081565b600b5481565b6060600e8080549050836114569190613ea8565b8154811061148d577f4e487b7100000000000000000000000000000000000000000000000000000000600052603260045260246000fd5b9060005260206000200180546114a290613de8565b80601f01602080910402602001604051908101604052809291908181526020018280546114ce90613de8565b801561151b5780601f106114f05761010080835404028352916020019161151b565b820191906000526020600020905b8154815290600101906020018083116114fe57829003601f168201915b505050505090506000600d54836002600d546115379190613c8d565b604051602001611548929190613adc565b6040516020818303038152906040528051906020012060001c61156b9190613ea8565b90506000600d54846003600d546115829190613c8d565b604051602001611593929190613adc565b6040516020818303038152906040528051906020012060001c6115b69190613ea8565b9050826115c283611efc565b6115cb83611efc565b6040516020016115dd93929190613643565b60405160208183030381529060405292505050919050565b6060611600826118e1565b600060066000848152602001908152602001600020805461162090613de8565b80601f016020809104026020016040519081016040528092919081815260200182805461164c90613de8565b80156116995780601f1061166e57610100808354040283529160200191611699565b820191906000526020600020905b81548152906001019060200180831161167c57829003601f168201915b5050505050905060006116aa61234a565b90506000815114156116c0578192505050611703565b6000825111156116f55780826040516020016116dd9291906135e5565b60405160208183030381529060405292505050611703565b6116fe84612361565b925050505b919050565b600a5481565b60095481565b6000600560008473ffffffffffffffffffffffffffffffffffffffff1673ffffffffffffffffffffffffffffffffffffffff16815260200190815260200160002060008373ffffffffffffffffffffffffffffffffffffffff1673ffffffffffffffffffffffffffffffffffffffff16815260200190815260200160002060009054906101000a900460ff16905092915050565b60006117b86008546009546123c9565b9050336010600083815260200190815260200160002060006101000a81548173ffffffffffffffffffffffffffffffffffffffff021916908373ffffffffffffffffffffffffffffffffffffffff1602179055506000600a5490508060116000848152602001908152602001600020819055506001600a600082825461183e9190613bcf565b9250508190555080827fd18cd6f82baac9078af064ea020dd3dc7bff649bd8d50684f972d5995fec6e6960405160405180910390a35090565b60007f01ffc9a7000000000000000000000000000000000000000000000000000000007bffffffffffffffffffffffffffffffffffffffffffffffffffffffff1916827bffffffffffffffffffffffffffffffffffffffffffffffffffffffff1916149050919050565b6118ea8161252b565b611929576040517f08c379a000000000000000000000000000000000000000000000000000000000815260040161192090613a61565b60405180910390fd5b50565b600033905090565b816004600083815260200190815260200160002060006101000a81548173ffffffffffffffffffffffffffffffffffffffff021916908373ffffffffffffffffffffffffffffffffffffffff160217905550808273ffffffffffffffffffffffffffffffffffffffff166119a783610e64565b73ffffffffffffffffffffffffffffffffffffffff167f8c5be1e5ebec7d5bd14f71427d1e84f3dd0314c0f7b2291e5b200ac8c7c3b92560405160405180910390a45050565b6000806119f983610e64565b90508073ffffffffffffffffffffffffffffffffffffffff168473ffffffffffffffffffffffffffffffffffffffff161480611a3b5750611a3a8185611714565b5b80611a7957508373ffffffffffffffffffffffffffffffffffffffff16611a618461083b565b73ffffffffffffffffffffffffffffffffffffffff16145b91505092915050565b8273ffffffffffffffffffffffffffffffffffffffff16611aa282610e64565b73ffffffffffffffffffffffffffffffffffffffff1614611af8576040517f08c379a0000000000000000000000000000000000000000000000000000000008152600401611aef906138e1565b60405180910390fd5b600073ffffffffffffffffffffffffffffffffffffffff168273ffffffffffffffffffffffffffffffffffffffff161415611b68576040517f08c379a0000000000000000000000000000000000000000000000000000000008152600401611b5f90613941565b60405180910390fd5b611b73838383612597565b611b7e600082611934565b6001600360008573ffffffffffffffffffffffffffffffffffffffff1673ffffffffffffffffffffffffffffffffffffffff1681526020019081526020016000206000828254611bce9190613ce7565b925050819055506001600360008473ffffffffffffffffffffffffffffffffffffffff1673ffffffffffffffffffffffffffffffffffffffff1681526020019081526020016000206000828254611c259190613bcf565b92505081905550816002600083815260200190815260200160002060006101000a81548173ffffffffffffffffffffffffffffffffffffffff021916908373ffffffffffffffffffffffffffffffffffffffff160217905550808273ffffffffffffffffffffffffffffffffffffffff168473ffffffffffffffffffffffffffffffffffffffff167fddf252ad1be2c89b69c2b068fc378daa952ba7f163c4a11628f55a4df523b3ef60405160405180910390a4611ce483838361259c565b505050565b6060600082511415611d0c57604051806020016040528060008152509050611e83565b600060405180606001604052806040815260200161465e6040913990506000600360028551611d3b9190613bcf565b611d459190613c5c565b6004611d519190613c8d565b90506000602082611d629190613bcf565b67ffffffffffffffff811115611da1577f4e487b7100000000000000000000000000000000000000000000000000000000600052604160045260246000fd5b6040519080825280601f01601f191660200182016040528015611dd35781602001600182028036833780820191505090505b509050818152600183018586518101602084015b81831015611e42576003830192508251603f8160121c168501518253600182019150603f81600c1c168501518253600182019150603f8160061c168501518253600182019150603f8116850151825360018201915050611de7565b600389510660018114611e5c5760028114611e6c57611e77565b613d3d60f01b6002830352611e77565b603d60f81b60018303525b50505050508093505050505b919050565b611e918261252b565b611ed0576040517f08c379a0000000000000000000000000000000000000000000000000000000008152600401611ec7906139a1565b60405180910390fd5b80600660008481526020019081526020016000209080519060200190611ef7929190612bca565b505050565b60606000821415611f44576040518060400160405280600181526020017f300000000000000000000000000000000000000000000000000000000000000081525090506120cc565b600082905060005b60008214611f76578080611f5f90613e4b565b915050600a82611f6f9190613c5c565b9150611f4c565b60008167ffffffffffffffff811115611fb8577f4e487b7100000000000000000000000000000000000000000000000000000000600052604160045260246000fd5b6040519080825280601f01601f191660200182016040528015611fea5781602001600182028036833780820191505090505b50905060008290505b600086146120c4576001816120089190613ce7565b90506000600a808861201a9190613c5c565b6120249190613c8d565b8761202f9190613ce7565b603061203b9190613c25565b905060008160f81b90508084848151811061207f577f4e487b7100000000000000000000000000000000000000000000000000000000600052603260045260246000fd5b60200101907effffffffffffffffffffffffffffffffffffffffffffffffffffffffffffff1916908160001a905350600a886120bb9190613c5c565b97505050611ff3565b819450505050505b919050565b60006010600084815260200190815260200160002060009054906101000a900473ffffffffffffffffffffffffffffffffffffffff16905060006011600085815260200190815260200160002054905061212b82826125a1565b826012600083815260200190815260200160002081905550807faad5362ce528ed941024b95d4c18dfd49b8503e1f586a5c353631d98c2af41b7846040516121739190613ac1565b60405180910390a250505050565b8173ffffffffffffffffffffffffffffffffffffffff168373ffffffffffffffffffffffffffffffffffffffff1614156121f0576040517f08c379a00000000000000000000000000000000000000000000000000000000081526004016121e790613961565b60405180910390fd5b80600560008573ffffffffffffffffffffffffffffffffffffffff1673ffffffffffffffffffffffffffffffffffffffff16815260200190815260200160002060008473ffffffffffffffffffffffffffffffffffffffff1673ffffffffffffffffffffffffffffffffffffffff16815260200190815260200160002060006101000a81548160ff0219169083151502179055508173ffffffffffffffffffffffffffffffffffffffff168373ffffffffffffffffffffffffffffffffffffffff167f17307eab39ab6107e8899845ad3d59bd9653f200f220920489ca2b5937696c31836040516122e191906137fb565b60405180910390a3505050565b6122f9848484611a82565b612305848484846125bf565b612344576040517f08c379a000000000000000000000000000000000000000000000000000000000815260040161233b906138c1565b60405180910390fd5b50505050565b606060405180602001604052806000815250905090565b606061236c826118e1565b600061237661234a565b9050600081511161239657604051806020016040528060008152506123c1565b806123a084612756565b6040516020016123b19291906135e5565b6040516020818303038152906040525b915050919050565b60007f000000000000000000000000000000000000000000000000000000000000000073ffffffffffffffffffffffffffffffffffffffff16634000aea07f00000000000000000000000000000000000000000000000000000000000000008486600060405160200161243d929190613831565b6040516020818303038152906040526040518463ffffffff1660e01b815260040161246a939291906137bd565b602060405180830381600087803b15801561248457600080fd5b505af1158015612498573d6000803e3d6000fd5b505050506040513d601f19601f820116820180604052508101906124bc9190612f77565b5060006124df846000306007600089815260200190815260200160002054612903565b9050600160076000868152602001908152602001600020546125019190613bcf565b6007600086815260200190815260200160002081905550612522848261293f565b91505092915050565b60008073ffffffffffffffffffffffffffffffffffffffff166002600084815260200190815260200160002060009054906101000a900473ffffffffffffffffffffffffffffffffffffffff1673ffffffffffffffffffffffffffffffffffffffff1614159050919050565b505050565b505050565b6125bb828260405180602001604052806000815250612972565b5050565b60006125e08473ffffffffffffffffffffffffffffffffffffffff166129cd565b15612749578373ffffffffffffffffffffffffffffffffffffffff1663150b7a0261260961192c565b8786866040518563ffffffff1660e01b815260040161262b9493929190613771565b602060405180830381600087803b15801561264557600080fd5b505af192505050801561267657506040513d601f19601f82011682018060405250810190612673919061302e565b60015b6126f9573d80600081146126a6576040519150601f19603f3d011682016040523d82523d6000602084013e6126ab565b606091505b506000815114156126f1576040517f08c379a00000000000000000000000000000000000000000000000000000000081526004016126e8906138c1565b60405180910390fd5b805181602001fd5b63150b7a0260e01b7bffffffffffffffffffffffffffffffffffffffffffffffffffffffff1916817bffffffffffffffffffffffffffffffffffffffffffffffffffffffff19161491505061274e565b600190505b949350505050565b6060600082141561279e576040518060400160405280600181526020017f300000000000000000000000000000000000000000000000000000000000000081525090506128fe565b600082905060005b600082146127d05780806127b990613e4b565b915050600a826127c99190613c5c565b91506127a6565b60008167ffffffffffffffff811115612812577f4e487b7100000000000000000000000000000000000000000000000000000000600052604160045260246000fd5b6040519080825280601f01601f1916602001820160405280156128445781602001600182028036833780820191505090505b5090505b600085146128f75760018261285d9190613ce7565b9150600a8561286c9190613ea8565b60306128789190613bcf565b60f81b8183815181106128b4577f4e487b7100000000000000000000000000000000000000000000000000000000600052603260045260246000fd5b60200101907effffffffffffffffffffffffffffffffffffffffffffffffffffffffffffff1916908160001a905350600a856128f09190613c5c565b9450612848565b8093505050505b919050565b60008484848460405160200161291c949392919061385a565b6040516020818303038152906040528051906020012060001c9050949350505050565b600082826040516020016129549291906135a2565b60405160208183030381529060405280519060200120905092915050565b61297c83836129f0565b61298960008484846125bf565b6129c8576040517f08c379a00000000000000000000000000000000000000000000000000000000081526004016129bf906138c1565b60405180910390fd5b505050565b6000808273ffffffffffffffffffffffffffffffffffffffff163b119050919050565b600073ffffffffffffffffffffffffffffffffffffffff168273ffffffffffffffffffffffffffffffffffffffff161415612a60576040517f08c379a0000000000000000000000000000000000000000000000000000000008152600401612a5790613a01565b60405180910390fd5b612a698161252b565b15612aa9576040517f08c379a0000000000000000000000000000000000000000000000000000000008152600401612aa090613901565b60405180910390fd5b612ab560008383612597565b6001600360008473ffffffffffffffffffffffffffffffffffffffff1673ffffffffffffffffffffffffffffffffffffffff1681526020019081526020016000206000828254612b059190613bcf565b92505081905550816002600083815260200190815260200160002060006101000a81548173ffffffffffffffffffffffffffffffffffffffff021916908373ffffffffffffffffffffffffffffffffffffffff160217905550808273ffffffffffffffffffffffffffffffffffffffff16600073ffffffffffffffffffffffffffffffffffffffff167fddf252ad1be2c89b69c2b068fc378daa952ba7f163c4a11628f55a4df523b3ef60405160405180910390a4612bc66000838361259c565b5050565b828054612bd690613de8565b90600052602060002090601f016020900481019282612bf85760008555612c3f565b82601f10612c1157805160ff1916838001178555612c3f565b82800160010185558215612c3f579182015b82811115612c3e578251825591602001919060010190612c23565b5b509050612c4c9190612c50565b5090565b5b80821115612c69576000816000905550600101612c51565b5090565b6000612c80612c7b84613b2a565b613b05565b905082815260208101848484011115612c9857600080fd5b612ca3848285613da6565b509392505050565b6000612cbe612cb984613b5b565b613b05565b905082815260208101848484011115612cd657600080fd5b612ce1848285613da6565b509392505050565b600081359050612cf8816145ea565b92915050565b600081359050612d0d81614601565b92915050565b600081519050612d2281614601565b92915050565b600081359050612d3781614618565b92915050565b600081359050612d4c8161462f565b92915050565b600081519050612d618161462f565b92915050565b600082601f830112612d7857600080fd5b8135612d88848260208601612c6d565b91505092915050565b600082601f830112612da257600080fd5b8135612db2848260208601612cab565b91505092915050565b600081359050612dca81614646565b92915050565b600060208284031215612de257600080fd5b6000612df084828501612ce9565b91505092915050565b60008060408385031215612e0c57600080fd5b6000612e1a85828601612ce9565b9250506020612e2b85828601612ce9565b9150509250929050565b600080600060608486031215612e4a57600080fd5b6000612e5886828701612ce9565b9350506020612e6986828701612ce9565b9250506040612e7a86828701612dbb565b9150509250925092565b60008060008060808587031215612e9a57600080fd5b6000612ea887828801612ce9565b9450506020612eb987828801612ce9565b9350506040612eca87828801612dbb565b925050606085013567ffffffffffffffff811115612ee757600080fd5b612ef387828801612d67565b91505092959194509250565b60008060408385031215612f1257600080fd5b6000612f2085828601612ce9565b9250506020612f3185828601612cfe565b9150509250929050565b60008060408385031215612f4e57600080fd5b6000612f5c85828601612ce9565b9250506020612f6d85828601612dbb565b9150509250929050565b600060208284031215612f8957600080fd5b6000612f9784828501612d13565b91505092915050565b600060208284031215612fb257600080fd5b6000612fc084828501612d28565b91505092915050565b60008060408385031215612fdc57600080fd5b6000612fea85828601612d28565b9250506020612ffb85828601612dbb565b9150509250929050565b60006020828403121561301757600080fd5b600061302584828501612d3d565b91505092915050565b60006020828403121561304057600080fd5b600061304e84828501612d52565b91505092915050565b60006020828403121561306957600080fd5b600082013567ffffffffffffffff81111561308357600080fd5b61308f84828501612d91565b91505092915050565b6000602082840312156130aa57600080fd5b60006130b884828501612dbb565b91505092915050565b6130ca81613d1b565b82525050565b6130d981613d2d565b82525050565b6130e881613d39565b82525050565b6130ff6130fa82613d39565b613e94565b82525050565b600061311082613b8c565b61311a8185613ba2565b935061312a818560208601613db5565b61313381613f95565b840191505092915050565b600061314982613b97565b6131538185613bb3565b9350613163818560208601613db5565b61316c81613f95565b840191505092915050565b600061318282613b97565b61318c8185613bc4565b935061319c818560208601613db5565b80840191505092915050565b60006131b5604c83613bc4565b91506131c082613fa6565b604c82019050919050565b60006131d8600983613bc4565b91506131e38261401b565b600982019050919050565b60006131fb603283613bb3565b915061320682614044565b604082019050919050565b600061321e602583613bb3565b915061322982614093565b604082019050919050565b6000613241601c83613bb3565b915061324c826140e2565b602082019050919050565b6000613264601683613bb3565b915061326f8261410b565b602082019050919050565b6000613287600b83613bc4565b915061329282614134565b600b82019050919050565b60006132aa602483613bb3565b91506132b58261415d565b604082019050919050565b60006132cd601983613bb3565b91506132d8826141ac565b602082019050919050565b60006132f0601d83613bc4565b91506132fb826141d5565b601d82019050919050565b6000613313600183613bc4565b915061331e826141fe565b600182019050919050565b6000613336600383613bc4565b915061334182614227565b600382019050919050565b6000613359602983613bb3565b915061336482614250565b604082019050919050565b600061337c602e83613bb3565b91506133878261429f565b604082019050919050565b600061339f602083613bb3565b91506133aa826142ee565b602082019050919050565b60006133c2600283613bc4565b91506133cd82614317565b600282019050919050565b60006133e5603e83613bb3565b91506133f082614340565b604082019050919050565b6000613408602083613bb3565b91506134138261438f565b602082019050919050565b600061342b603e83613bb3565b9150613436826143b8565b604082019050919050565b600061344e601f83613bb3565b915061345982614407565b602082019050919050565b6000613471601883613bb3565b915061347c82614430565b602082019050919050565b6000613494602183613bb3565b915061349f82614459565b604082019050919050565b60006134b7601d83613bc4565b91506134c2826144a8565b601d82019050919050565b60006134da603183613bc4565b91506134e5826144d1565b603182019050919050565b60006134fd600283613bc4565b915061350882614520565b600282019050919050565b6000613520602e83613bb3565b915061352b82614549565b604082019050919050565b6000613543600683613bc4565b915061354e82614598565b600682019050919050565b6000613566600983613bc4565b9150613571826145c1565b600982019050919050565b61358581613d8f565b82525050565b61359c61359782613d8f565b613e9e565b82525050565b60006135ae82856130ee565b6020820191506135be828461358b565b6020820191508190509392505050565b60006135da8284613177565b915081905092915050565b60006135f18285613177565b91506135fd8284613177565b91508190509392505050565b60006136158285613177565b9150613620826132e3565b915061362c8284613177565b915061363782613329565b91508190509392505050565b600061364f8286613177565b915061365a82613306565b91506136668285613177565b915061367182613306565b915061367d8284613177565b9150819050949350505050565b60006136968284613177565b91506136a182613536565b915081905092915050565b60006136b7826131cb565b91506136c28261327a565b91506136cd826131a8565b91506136d98284613177565b91506136e4826133b5565b915081905092915050565b60006136fa826134aa565b91506137068284613177565b915081905092915050565b600061371c826134cd565b91506137288285613177565b915061373382613559565b915061373f8284613177565b915061374a826134f0565b91508190509392505050565b600060208201905061376b60008301846130c1565b92915050565b600060808201905061378660008301876130c1565b61379360208301866130c1565b6137a0604083018561357c565b81810360608301526137b28184613105565b905095945050505050565b60006060820190506137d260008301866130c1565b6137df602083018561357c565b81810360408301526137f18184613105565b9050949350505050565b600060208201905061381060008301846130d0565b92915050565b600060208201905061382b60008301846130df565b92915050565b600060408201905061384660008301856130df565b613853602083018461357c565b9392505050565b600060808201905061386f60008301876130df565b61387c602083018661357c565b61388960408301856130c1565b613896606083018461357c565b95945050505050565b600060208201905081810360008301526138b9818461313e565b905092915050565b600060208201905081810360008301526138da816131ee565b9050919050565b600060208201905081810360008301526138fa81613211565b9050919050565b6000602082019050818103600083015261391a81613234565b9050919050565b6000602082019050818103600083015261393a81613257565b9050919050565b6000602082019050818103600083015261395a8161329d565b9050919050565b6000602082019050818103600083015261397a816132c0565b9050919050565b6000602082019050818103600083015261399a8161334c565b9050919050565b600060208201905081810360008301526139ba8161336f565b9050919050565b600060208201905081810360008301526139da81613392565b9050919050565b600060208201905081810360008301526139fa816133d8565b9050919050565b60006020820190508181036000830152613a1a816133fb565b9050919050565b60006020820190508181036000830152613a3a8161341e565b9050919050565b60006020820190508181036000830152613a5a81613441565b9050919050565b60006020820190508181036000830152613a7a81613464565b9050919050565b60006020820190508181036000830152613a9a81613487565b9050919050565b60006020820190508181036000830152613aba81613513565b9050919050565b6000602082019050613ad6600083018461357c565b92915050565b6000604082019050613af1600083018561357c565b613afe602083018461357c565b9392505050565b6000613b0f613b20565b9050613b1b8282613e1a565b919050565b6000604051905090565b600067ffffffffffffffff821115613b4557613b44613f66565b5b613b4e82613f95565b9050602081019050919050565b600067ffffffffffffffff821115613b7657613b75613f66565b5b613b7f82613f95565b9050602081019050919050565b600081519050919050565b600081519050919050565b600082825260208201905092915050565b600082825260208201905092915050565b600081905092915050565b6000613bda82613d8f565b9150613be583613d8f565b9250827fffffffffffffffffffffffffffffffffffffffffffffffffffffffffffffffff03821115613c1a57613c19613ed9565b5b828201905092915050565b6000613c3082613d99565b9150613c3b83613d99565b92508260ff03821115613c5157613c50613ed9565b5b828201905092915050565b6000613c6782613d8f565b9150613c7283613d8f565b925082613c8257613c81613f08565b5b828204905092915050565b6000613c9882613d8f565b9150613ca383613d8f565b9250817fffffffffffffffffffffffffffffffffffffffffffffffffffffffffffffffff0483118215151615613cdc57613cdb613ed9565b5b828202905092915050565b6000613cf282613d8f565b9150613cfd83613d8f565b925082821015613d1057613d0f613ed9565b5b828203905092915050565b6000613d2682613d6f565b9050919050565b60008115159050919050565b6000819050919050565b60007fffffffff0000000000000000000000000000000000000000000000000000000082169050919050565b600073ffffffffffffffffffffffffffffffffffffffff82169050919050565b6000819050919050565b600060ff82169050919050565b82818337600083830152505050565b60005b83811015613dd3578082015181840152602081019050613db8565b83811115613de2576000848401525b50505050565b60006002820490506001821680613e0057607f821691505b60208210811415613e1457613e13613f37565b5b50919050565b613e2382613f95565b810181811067ffffffffffffffff82111715613e4257613e41613f66565b5b80604052505050565b6000613e5682613d8f565b91507fffffffffffffffffffffffffffffffffffffffffffffffffffffffffffffffff821415613e8957613e88613ed9565b5b600182019050919050565b6000819050919050565b6000819050919050565b6000613eb382613d8f565b9150613ebe83613d8f565b925082613ece57613ecd613f08565b5b828206905092915050565b7f4e487b7100000000000000000000000000000000000000000000000000000000600052601160045260246000fd5b7f4e487b7100000000000000000000000000000000000000000000000000000000600052601260045260246000fd5b7f4e487b7100000000000000000000000000000000000000000000000000000000600052602260045260246000fd5b7f4e487b7100000000000000000000000000000000000000000000000000000000600052604160045260246000fd5b6000601f19601f8301169050919050565b7f222c20226465736372697074696f6e223a22412066756c6c79206f6e2d63686160008201527f696e2048657861676f6e204e465421222c202261747472696275746573223a2260208201527f222c2022696d616765223a220000000000000000000000000000000000000000604082015250565b7f7b226e616d65223a220000000000000000000000000000000000000000000000600082015250565b7f4552433732313a207472616e7366657220746f206e6f6e20455243373231526560008201527f63656976657220696d706c656d656e7465720000000000000000000000000000602082015250565b7f4552433732313a207472616e736665722066726f6d20696e636f72726563742060008201527f6f776e6572000000000000000000000000000000000000000000000000000000602082015250565b7f4552433732313a20746f6b656e20616c7265616479206d696e74656400000000600082015250565b7f546f6b656e2055524920616c7265616479207365742100000000000000000000600082015250565b7f5356472048657861676f6e000000000000000000000000000000000000000000600082015250565b7f4552433732313a207472616e7366657220746f20746865207a65726f2061646460008201527f7265737300000000000000000000000000000000000000000000000000000000602082015250565b7f4552433732313a20617070726f766520746f2063616c6c657200000000000000600082015250565b7f272066696c6c3d277472616e73706172656e7427207374726f6b653d27000000600082015250565b7f2000000000000000000000000000000000000000000000000000000000000000600082015250565b7f272f3e0000000000000000000000000000000000000000000000000000000000600082015250565b7f4552433732313a2061646472657373207a65726f206973206e6f74206120766160008201527f6c6964206f776e65720000000000000000000000000000000000000000000000602082015250565b7f45524337323155524953746f726167653a2055524920736574206f66206e6f6e60008201527f6578697374656e7420746f6b656e000000000000000000000000000000000000602082015250565b7f546f6b656e496420686173206e6f74206265656e206d696e7465642079657421600082015250565b7f227d000000000000000000000000000000000000000000000000000000000000600082015250565b7f4552433732313a20617070726f76652063616c6c6572206973206e6f7420746f60008201527f6b656e206f776e6572206e6f7220617070726f76656420666f7220616c6c0000602082015250565b7f4552433732313a206d696e7420746f20746865207a65726f2061646472657373600082015250565b7f5468657265206973206e6f204e465420666f72207468697320746f6b656e496460008201527f206f72207761697420666f722074686520436861696e6c696e6b205652460000602082015250565b7f4f6e6c7920565246436f6f7264696e61746f722063616e2066756c66696c6c00600082015250565b7f4552433732313a20696e76616c696420746f6b656e2049440000000000000000600082015250565b7f4552433732313a20617070726f76616c20746f2063757272656e74206f776e6560008201527f7200000000000000000000000000000000000000000000000000000000000000602082015250565b7f646174613a6170706c69636174696f6e2f6a736f6e3b6261736536342c000000600082015250565b7f3c73766720786d6c6e733d2027687474703a2f2f7777772e77332e6f72672f3260008201527f3030302f73766727206865696768743d27000000000000000000000000000000602082015250565b7f273e000000000000000000000000000000000000000000000000000000000000600082015250565b7f4552433732313a2063616c6c6572206973206e6f7420746f6b656e206f776e6560008201527f72206e6f7220617070726f766564000000000000000000000000000000000000602082015250565b7f3c2f7376673e0000000000000000000000000000000000000000000000000000600082015250565b7f272077696474683d270000000000000000000000000000000000000000000000600082015250565b6145f381613d1b565b81146145fe57600080fd5b50565b61460a81613d2d565b811461461557600080fd5b50565b61462181613d39565b811461462c57600080fd5b50565b61463881613d43565b811461464357600080fd5b50565b61464f81613d8f565b811461465a57600080fd5b5056fe4142434445464748494a4b4c4d4e4f505152535455565758595a6162636465666768696a6b6c6d6e6f707172737475767778797a303132333435363738392b2fa2646970667358221220507ebe352532b3fdbc379e476a1ec64fab2090391cfefed3e9c90fb0cef2117964736f6c63430008010033",
  "devdoc": {
    "kind": "dev",
    "methods": {
      "approve(address,uint256)": {
        "details": "See {IERC721-approve}."
      },
      "balanceOf(address)": {
        "details": "See {IERC721-balanceOf}."
      },
      "getApproved(uint256)": {
        "details": "See {IERC721-getApproved}."
      },
      "isApprovedForAll(address,address)": {
        "details": "See {IERC721-isApprovedForAll}."
      },
      "name()": {
        "details": "See {IERC721Metadata-name}."
      },
      "ownerOf(uint256)": {
        "details": "See {IERC721-ownerOf}."
      },
      "safeTransferFrom(address,address,uint256)": {
        "details": "See {IERC721-safeTransferFrom}."
      },
      "safeTransferFrom(address,address,uint256,bytes)": {
        "details": "See {IERC721-safeTransferFrom}."
      },
      "setApprovalForAll(address,bool)": {
        "details": "See {IERC721-setApprovalForAll}."
      },
      "supportsInterface(bytes4)": {
        "details": "See {IERC165-supportsInterface}."
      },
      "symbol()": {
        "details": "See {IERC721Metadata-symbol}."
      },
      "tokenURI(uint256)": {
        "details": "See {IERC721Metadata-tokenURI}."
      },
      "transferFrom(address,address,uint256)": {
        "details": "See {IERC721-transferFrom}."
      }
    },
    "version": 1
  },
  "userdoc": {
    "kind": "user",
    "methods": {},
    "version": 1
  },
  "storageLayout": {
    "storage": [
      {
        "astId": 291,
        "contract": "contracts/RandomSVG.sol:RandomSVG",
        "label": "_name",
        "offset": 0,
        "slot": "0",
        "type": "t_string_storage"
      },
      {
        "astId": 293,
        "contract": "contracts/RandomSVG.sol:RandomSVG",
        "label": "_symbol",
        "offset": 0,
        "slot": "1",
        "type": "t_string_storage"
      },
      {
        "astId": 297,
        "contract": "contracts/RandomSVG.sol:RandomSVG",
        "label": "_owners",
        "offset": 0,
        "slot": "2",
        "type": "t_mapping(t_uint256,t_address)"
      },
      {
        "astId": 301,
        "contract": "contracts/RandomSVG.sol:RandomSVG",
        "label": "_balances",
        "offset": 0,
        "slot": "3",
        "type": "t_mapping(t_address,t_uint256)"
      },
      {
        "astId": 305,
        "contract": "contracts/RandomSVG.sol:RandomSVG",
        "label": "_tokenApprovals",
        "offset": 0,
        "slot": "4",
        "type": "t_mapping(t_uint256,t_address)"
      },
      {
        "astId": 311,
        "contract": "contracts/RandomSVG.sol:RandomSVG",
        "label": "_operatorApprovals",
        "offset": 0,
        "slot": "5",
        "type": "t_mapping(t_address,t_mapping(t_address,t_bool))"
      },
      {
        "astId": 1279,
        "contract": "contracts/RandomSVG.sol:RandomSVG",
        "label": "_tokenURIs",
        "offset": 0,
        "slot": "6",
        "type": "t_mapping(t_uint256,t_string_storage)"
      },
      {
        "astId": 79,
        "contract": "contracts/RandomSVG.sol:RandomSVG",
        "label": "nonces",
        "offset": 0,
        "slot": "7",
        "type": "t_mapping(t_bytes32,t_uint256)"
      },
      {
        "astId": 2123,
        "contract": "contracts/RandomSVG.sol:RandomSVG",
        "label": "keyHash",
        "offset": 0,
        "slot": "8",
        "type": "t_bytes32"
      },
      {
        "astId": 2125,
        "contract": "contracts/RandomSVG.sol:RandomSVG",
        "label": "fee",
        "offset": 0,
        "slot": "9",
        "type": "t_uint256"
      },
      {
        "astId": 2127,
        "contract": "contracts/RandomSVG.sol:RandomSVG",
        "label": "tokenCounter",
        "offset": 0,
        "slot": "10",
        "type": "t_uint256"
      },
      {
        "astId": 2129,
        "contract": "contracts/RandomSVG.sol:RandomSVG",
        "label": "maxNumberOfPaths",
        "offset": 0,
        "slot": "11",
        "type": "t_uint256"
      },
      {
        "astId": 2131,
        "contract": "contracts/RandomSVG.sol:RandomSVG",
        "label": "maxNumberOfPathCommands",
        "offset": 0,
        "slot": "12",
        "type": "t_uint256"
      },
      {
        "astId": 2133,
        "contract": "contracts/RandomSVG.sol:RandomSVG",
        "label": "size",
        "offset": 0,
        "slot": "13",
        "type": "t_uint256"
      },
      {
        "astId": 2136,
        "contract": "contracts/RandomSVG.sol:RandomSVG",
        "label": "pathCommands",
        "offset": 0,
        "slot": "14",
        "type": "t_array(t_string_storage)dyn_storage"
      },
      {
        "astId": 2139,
        "contract": "contracts/RandomSVG.sol:RandomSVG",
        "label": "colors",
        "offset": 0,
        "slot": "15",
        "type": "t_array(t_string_storage)dyn_storage"
      },
      {
        "astId": 2143,
        "contract": "contracts/RandomSVG.sol:RandomSVG",
        "label": "requestIdToSender",
        "offset": 0,
        "slot": "16",
        "type": "t_mapping(t_bytes32,t_address)"
      },
      {
        "astId": 2147,
        "contract": "contracts/RandomSVG.sol:RandomSVG",
        "label": "requestIdToTokenId",
        "offset": 0,
        "slot": "17",
        "type": "t_mapping(t_bytes32,t_uint256)"
      },
      {
        "astId": 2151,
        "contract": "contracts/RandomSVG.sol:RandomSVG",
        "label": "tokenIdToRandomNumber",
        "offset": 0,
        "slot": "18",
        "type": "t_mapping(t_uint256,t_uint256)"
      }
    ],
    "types": {
      "t_address": {
        "encoding": "inplace",
        "label": "address",
        "numberOfBytes": "20"
      },
      "t_array(t_string_storage)dyn_storage": {
        "base": "t_string_storage",
        "encoding": "dynamic_array",
        "label": "string[]",
        "numberOfBytes": "32"
      },
      "t_bool": {
        "encoding": "inplace",
        "label": "bool",
        "numberOfBytes": "1"
      },
      "t_bytes32": {
        "encoding": "inplace",
        "label": "bytes32",
        "numberOfBytes": "32"
      },
      "t_mapping(t_address,t_bool)": {
        "encoding": "mapping",
        "key": "t_address",
        "label": "mapping(address => bool)",
        "numberOfBytes": "32",
        "value": "t_bool"
      },
      "t_mapping(t_address,t_mapping(t_address,t_bool))": {
        "encoding": "mapping",
        "key": "t_address",
        "label": "mapping(address => mapping(address => bool))",
        "numberOfBytes": "32",
        "value": "t_mapping(t_address,t_bool)"
      },
      "t_mapping(t_address,t_uint256)": {
        "encoding": "mapping",
        "key": "t_address",
        "label": "mapping(address => uint256)",
        "numberOfBytes": "32",
        "value": "t_uint256"
      },
      "t_mapping(t_bytes32,t_address)": {
        "encoding": "mapping",
        "key": "t_bytes32",
        "label": "mapping(bytes32 => address)",
        "numberOfBytes": "32",
        "value": "t_address"
      },
      "t_mapping(t_bytes32,t_uint256)": {
        "encoding": "mapping",
        "key": "t_bytes32",
        "label": "mapping(bytes32 => uint256)",
        "numberOfBytes": "32",
        "value": "t_uint256"
      },
      "t_mapping(t_uint256,t_address)": {
        "encoding": "mapping",
        "key": "t_uint256",
        "label": "mapping(uint256 => address)",
        "numberOfBytes": "32",
        "value": "t_address"
      },
      "t_mapping(t_uint256,t_string_storage)": {
        "encoding": "mapping",
        "key": "t_uint256",
        "label": "mapping(uint256 => string)",
        "numberOfBytes": "32",
        "value": "t_string_storage"
      },
      "t_mapping(t_uint256,t_uint256)": {
        "encoding": "mapping",
        "key": "t_uint256",
        "label": "mapping(uint256 => uint256)",
        "numberOfBytes": "32",
        "value": "t_uint256"
      },
      "t_string_storage": {
        "encoding": "bytes",
        "label": "string",
        "numberOfBytes": "32"
      },
      "t_uint256": {
        "encoding": "inplace",
        "label": "uint256",
        "numberOfBytes": "32"
      }
    }
  }
}