{
  "address": "0x6cDC3A6552CFce4044357ecf13A0bCC2852de5b1",
  "abi": [
    {
      "inputs": [
        {
          "internalType": "address",
          "name": "_vrfCoordinator",
          "type": "address"
        },
        {
          "internalType": "address",
          "name": "_linkToken",
          "type": "address"
        },
        {
          "internalType": "bytes32",
          "name": "_keyHash",
          "type": "bytes32"
        },
        {
          "internalType": "uint256",
          "name": "_fee",
          "type": "uint256"
        }
      ],
      "stateMutability": "nonpayable",
      "type": "constructor"
    },
    {
      "anonymous": false,
      "inputs": [
        {
          "indexed": true,
          "internalType": "address",
          "name": "owner",
          "type": "address"
        },
        {
          "indexed": true,
          "internalType": "address",
          "name": "approved",
          "type": "address"
        },
        {
          "indexed": true,
          "internalType": "uint256",
          "name": "tokenId",
          "type": "uint256"
        }
      ],
      "name": "Approval",
      "type": "event"
    },
    {
      "anonymous": false,
      "inputs": [
        {
          "indexed": true,
          "internalType": "address",
          "name": "owner",
          "type": "address"
        },
        {
          "indexed": true,
          "internalType": "address",
          "name": "operator",
          "type": "address"
        },
        {
          "indexed": false,
          "internalType": "bool",
          "name": "approved",
          "type": "bool"
        }
      ],
      "name": "ApprovalForAll",
      "type": "event"
    },
    {
      "anonymous": false,
      "inputs": [
        {
          "indexed": true,
          "internalType": "uint256",
          "name": "tokenId",
          "type": "uint256"
        },
        {
          "indexed": false,
          "internalType": "string",
          "name": "tokenURI",
          "type": "string"
        }
      ],
      "name": "CreatedRandomSVG",
      "type": "event"
    },
    {
      "anonymous": false,
      "inputs": [
        {
          "indexed": true,
          "internalType": "uint256",
          "name": "tokenId",
          "type": "uint256"
        },
        {
          "indexed": false,
          "internalType": "uint256",
          "name": "randomNumber",
          "type": "uint256"
        }
      ],
      "name": "CreatedUnfinishedRandomSVG",
      "type": "event"
    },
    {
      "anonymous": false,
      "inputs": [
        {
          "indexed": true,
          "internalType": "bytes32",
          "name": "requestId",
          "type": "bytes32"
        },
        {
          "indexed": true,
          "internalType": "uint256",
          "name": "tokenId",
          "type": "uint256"
        }
      ],
      "name": "RequestedRandomSVG",
      "type": "event"
    },
    {
      "anonymous": false,
      "inputs": [
        {
          "indexed": true,
          "internalType": "address",
          "name": "from",
          "type": "address"
        },
        {
          "indexed": true,
          "internalType": "address",
          "name": "to",
          "type": "address"
        },
        {
          "indexed": true,
          "internalType": "uint256",
          "name": "tokenId",
          "type": "uint256"
        }
      ],
      "name": "Transfer",
      "type": "event"
    },
    {
      "inputs": [
        {
          "internalType": "address",
          "name": "to",
          "type": "address"
        },
        {
          "internalType": "uint256",
          "name": "tokenId",
          "type": "uint256"
        }
      ],
      "name": "approve",
      "outputs": [],
      "stateMutability": "nonpayable",
      "type": "function"
    },
    {
      "inputs": [
        {
          "internalType": "uint256",
          "name": "",
          "type": "uint256"
        }
      ],
      "name": "attributes",
      "outputs": [
        {
          "internalType": "string",
          "name": "",
          "type": "string"
        }
      ],
      "stateMutability": "view",
      "type": "function"
    },
    {
      "inputs": [
        {
          "internalType": "uint256",
          "name": "",
          "type": "uint256"
        }
      ],
      "name": "backgrounds",
      "outputs": [
        {
          "internalType": "string",
          "name": "",
          "type": "string"
        }
      ],
      "stateMutability": "view",
      "type": "function"
    },
    {
      "inputs": [
        {
          "internalType": "address",
          "name": "owner",
          "type": "address"
        }
      ],
      "name": "balanceOf",
      "outputs": [
        {
          "internalType": "uint256",
          "name": "",
          "type": "uint256"
        }
      ],
      "stateMutability": "view",
      "type": "function"
    },
    {
      "inputs": [],
      "name": "create",
      "outputs": [
        {
          "internalType": "bytes32",
          "name": "requestId",
          "type": "bytes32"
        }
      ],
      "stateMutability": "nonpayable",
      "type": "function"
    },
    {
      "inputs": [],
      "name": "fee",
      "outputs": [
        {
          "internalType": "uint256",
          "name": "",
          "type": "uint256"
        }
      ],
      "stateMutability": "view",
      "type": "function"
    },
    {
      "inputs": [
        {
          "internalType": "uint256",
          "name": "",
          "type": "uint256"
        }
      ],
      "name": "fills",
      "outputs": [
        {
          "internalType": "string",
          "name": "",
          "type": "string"
        }
      ],
      "stateMutability": "view",
      "type": "function"
    },
    {
      "inputs": [
        {
          "internalType": "uint256",
          "name": "_tokenId",
          "type": "uint256"
        }
      ],
      "name": "finishMint",
      "outputs": [],
      "stateMutability": "nonpayable",
      "type": "function"
    },
    {
      "inputs": [
        {
          "internalType": "string",
          "name": "imageURI",
          "type": "string"
        },
        {
          "internalType": "uint256",
          "name": "_randomNumber",
          "type": "uint256"
        }
      ],
      "name": "formatTokenURI",
      "outputs": [
        {
          "internalType": "string",
          "name": "",
          "type": "string"
        }
      ],
      "stateMutability": "view",
      "type": "function"
    },
    {
      "inputs": [
        {
          "internalType": "uint256",
          "name": "_randomNumber",
          "type": "uint256"
        }
      ],
      "name": "generateSVG",
      "outputs": [
        {
          "internalType": "string",
          "name": "finalSvg",
          "type": "string"
        }
      ],
      "stateMutability": "view",
      "type": "function"
    },
    {
      "inputs": [
        {
          "internalType": "uint256",
          "name": "tokenId",
          "type": "uint256"
        }
      ],
      "name": "getApproved",
      "outputs": [
        {
          "internalType": "address",
          "name": "",
          "type": "address"
        }
      ],
      "stateMutability": "view",
      "type": "function"
    },
    {
      "inputs": [
        {
          "internalType": "address",
          "name": "owner",
          "type": "address"
        },
        {
          "internalType": "address",
          "name": "operator",
          "type": "address"
        }
      ],
      "name": "isApprovedForAll",
      "outputs": [
        {
          "internalType": "bool",
          "name": "",
          "type": "bool"
        }
      ],
      "stateMutability": "view",
      "type": "function"
    },
    {
      "inputs": [],
      "name": "keyHash",
      "outputs": [
        {
          "internalType": "bytes32",
          "name": "",
          "type": "bytes32"
        }
      ],
      "stateMutability": "view",
      "type": "function"
    },
    {
      "inputs": [],
      "name": "name",
      "outputs": [
        {
          "internalType": "string",
          "name": "",
          "type": "string"
        }
      ],
      "stateMutability": "view",
      "type": "function"
    },
    {
      "inputs": [
        {
          "internalType": "uint256",
          "name": "tokenId",
          "type": "uint256"
        }
      ],
      "name": "ownerOf",
      "outputs": [
        {
          "internalType": "address",
          "name": "",
          "type": "address"
        }
      ],
      "stateMutability": "view",
      "type": "function"
    },
    {
      "inputs": [
        {
          "internalType": "bytes32",
          "name": "requestId",
          "type": "bytes32"
        },
        {
          "internalType": "uint256",
          "name": "randomness",
          "type": "uint256"
        }
      ],
      "name": "rawFulfillRandomness",
      "outputs": [],
      "stateMutability": "nonpayable",
      "type": "function"
    },
    {
      "inputs": [
        {
          "internalType": "bytes32",
          "name": "",
          "type": "bytes32"
        }
      ],
      "name": "requestIdToSender",
      "outputs": [
        {
          "internalType": "address",
          "name": "",
          "type": "address"
        }
      ],
      "stateMutability": "view",
      "type": "function"
    },
    {
      "inputs": [
        {
          "internalType": "bytes32",
          "name": "",
          "type": "bytes32"
        }
      ],
      "name": "requestIdToTokenId",
      "outputs": [
        {
          "internalType": "uint256",
          "name": "",
          "type": "uint256"
        }
      ],
      "stateMutability": "view",
      "type": "function"
    },
    {
      "inputs": [
        {
          "internalType": "address",
          "name": "from",
          "type": "address"
        },
        {
          "internalType": "address",
          "name": "to",
          "type": "address"
        },
        {
          "internalType": "uint256",
          "name": "tokenId",
          "type": "uint256"
        }
      ],
      "name": "safeTransferFrom",
      "outputs": [],
      "stateMutability": "nonpayable",
      "type": "function"
    },
    {
      "inputs": [
        {
          "internalType": "address",
          "name": "from",
          "type": "address"
        },
        {
          "internalType": "address",
          "name": "to",
          "type": "address"
        },
        {
          "internalType": "uint256",
          "name": "tokenId",
          "type": "uint256"
        },
        {
          "internalType": "bytes",
          "name": "data",
          "type": "bytes"
        }
      ],
      "name": "safeTransferFrom",
      "outputs": [],
      "stateMutability": "nonpayable",
      "type": "function"
    },
    {
      "inputs": [
        {
          "internalType": "address",
          "name": "operator",
          "type": "address"
        },
        {
          "internalType": "bool",
          "name": "approved",
          "type": "bool"
        }
      ],
      "name": "setApprovalForAll",
      "outputs": [],
      "stateMutability": "nonpayable",
      "type": "function"
    },
    {
      "inputs": [
        {
          "internalType": "uint256",
          "name": "",
          "type": "uint256"
        }
      ],
      "name": "strokes",
      "outputs": [
        {
          "internalType": "string",
          "name": "",
          "type": "string"
        }
      ],
      "stateMutability": "view",
      "type": "function"
    },
    {
      "inputs": [
        {
          "internalType": "bytes4",
          "name": "interfaceId",
          "type": "bytes4"
        }
      ],
      "name": "supportsInterface",
      "outputs": [
        {
          "internalType": "bool",
          "name": "",
          "type": "bool"
        }
      ],
      "stateMutability": "view",
      "type": "function"
    },
    {
      "inputs": [
        {
          "internalType": "string",
          "name": "svg",
          "type": "string"
        }
      ],
      "name": "svgToImageURI",
      "outputs": [
        {
          "internalType": "string",
          "name": "",
          "type": "string"
        }
      ],
      "stateMutability": "pure",
      "type": "function"
    },
    {
      "inputs": [],
      "name": "symbol",
      "outputs": [
        {
          "internalType": "string",
          "name": "",
          "type": "string"
        }
      ],
      "stateMutability": "view",
      "type": "function"
    },
    {
      "inputs": [],
      "name": "tokenCounter",
      "outputs": [
        {
          "internalType": "uint256",
          "name": "",
          "type": "uint256"
        }
      ],
      "stateMutability": "view",
      "type": "function"
    },
    {
      "inputs": [
        {
          "internalType": "uint256",
          "name": "",
          "type": "uint256"
        }
      ],
      "name": "tokenIdToRandomNumber",
      "outputs": [
        {
          "internalType": "uint256",
          "name": "",
          "type": "uint256"
        }
      ],
      "stateMutability": "view",
      "type": "function"
    },
    {
      "inputs": [
        {
          "internalType": "uint256",
          "name": "tokenId",
          "type": "uint256"
        }
      ],
      "name": "tokenURI",
      "outputs": [
        {
          "internalType": "string",
          "name": "",
          "type": "string"
        }
      ],
      "stateMutability": "view",
      "type": "function"
    },
    {
      "inputs": [
        {
          "internalType": "address",
          "name": "from",
          "type": "address"
        },
        {
          "internalType": "address",
          "name": "to",
          "type": "address"
        },
        {
          "internalType": "uint256",
          "name": "tokenId",
          "type": "uint256"
        }
      ],
      "name": "transferFrom",
      "outputs": [],
      "stateMutability": "nonpayable",
      "type": "function"
    }
  ],
  "transactionHash": "0x0f11259e62ed11f7e0757fa20635d63756129af02a454a2699405bdfc01de76e",
  "args": [
    "0xdD3782915140c8f3b190B5D67eAc6dc5760C46E9",
    "0xa36085F69e2889c224210F603D836748e7dC0088",
    "0x6c3699283bda56ad74f6b855546325b68d482e983852a7a82979cc4807b641f4",
    "100000000000000000"
  ],
  "numDeployments": 1,
  "solcInputHash": "b0f9fa996ce330428c8c54a924b6402b",
  "bytecode": "0x60c06040523480156200001157600080fd5b50604051620051b1380380620051b1833981810160405281019062000037919062000709565b83836040518060400160405280600d81526020017f52616e646f6d205356474e4654000000000000000000000000000000000000008152506040518060400160405280600581526020017f52534e46540000000000000000000000000000000000000000000000000000008152508160009080519060200190620000bd929190620004d8565b508060019080519060200190620000d6929190620004d8565b5050508173ffffffffffffffffffffffffffffffffffffffff1660a08173ffffffffffffffffffffffffffffffffffffffff1660601b815250508073ffffffffffffffffffffffffffffffffffffffff1660808173ffffffffffffffffffffffffffffffffffffffff1660601b8152505050506000600a81905550816008819055508060098190555060405180606001604052806040518060400160405280600481526020017f676f6c640000000000000000000000000000000000000000000000000000000081525081526020016040518060400160405280600481526020017f626c75650000000000000000000000000000000000000000000000000000000081525081526020016040518060400160405280600581526020017f677265656e000000000000000000000000000000000000000000000000000000815250815250600b9060036200022b92919062000569565b5060405180606001604052806040518060400160405280600681526020017f79656c6c6f77000000000000000000000000000000000000000000000000000081525081526020016040518060400160405280600581526020017f626c61636b00000000000000000000000000000000000000000000000000000081525081526020016040518060400160405280600581526020017f7768697465000000000000000000000000000000000000000000000000000000815250815250600c906003620002f892919062000569565b5060405180608001604052806040518060400160405280600781526020017f233030303030300000000000000000000000000000000000000000000000000081525081526020016040518060400160405280600781526020017f234236313739320000000000000000000000000000000000000000000000000081525081526020016040518060400160405280600781526020017f234142373730460000000000000000000000000000000000000000000000000081525081526020016040518060400160405280600781526020017f2346463030363100000000000000000000000000000000000000000000000000815250815250600d90600462000400929190620005d0565b5060405180606001604052806040518060400160405280600581526020017f536861727000000000000000000000000000000000000000000000000000000081525081526020016040518060400160405280600581526020017f5368696e7900000000000000000000000000000000000000000000000000000081525081526020016040518060400160405280600681526020017f4d79737469630000000000000000000000000000000000000000000000000000815250815250600e906003620004cd92919062000569565b505050505062000870565b828054620004e690620007bd565b90600052602060002090601f0160209004810192826200050a576000855562000556565b82601f106200052557805160ff191683800117855562000556565b8280016001018555821562000556579182015b828111156200055557825182559160200191906001019062000538565b5b50905062000565919062000637565b5090565b828054828255906000526020600020908101928215620005bd579160200282015b82811115620005bc578251829080519060200190620005ab929190620004d8565b50916020019190600101906200058a565b5b509050620005cc919062000656565b5090565b82805482825590600052602060002090810192821562000624579160200282015b828111156200062357825182908051906020019062000612929190620004d8565b5091602001919060010190620005f1565b5b50905062000633919062000656565b5090565b5b808211156200065257600081600090555060010162000638565b5090565b5b808211156200067a57600081816200067091906200067e565b5060010162000657565b5090565b5080546200068c90620007bd565b6000825580601f10620006a05750620006c1565b601f016020900490600052602060002090810190620006c0919062000637565b5b50565b600081519050620006d58162000822565b92915050565b600081519050620006ec816200083c565b92915050565b600081519050620007038162000856565b92915050565b600080600080608085870312156200072057600080fd5b60006200073087828801620006c4565b94505060206200074387828801620006c4565b93505060406200075687828801620006db565b92505060606200076987828801620006f2565b91505092959194509250565b6000620007828262000793565b9050919050565b6000819050919050565b600073ffffffffffffffffffffffffffffffffffffffff82169050919050565b6000819050919050565b60006002820490506001821680620007d657607f821691505b60208210811415620007ed57620007ec620007f3565b5b50919050565b7f4e487b7100000000000000000000000000000000000000000000000000000000600052602260045260246000fd5b6200082d8162000775565b81146200083957600080fd5b50565b620008478162000789565b81146200085357600080fd5b50565b6200086181620007b3565b81146200086d57600080fd5b50565b60805160601c60a05160601c61490e620008a3600039600081816111c0015261225301526000612217015261490e6000f3fe608060405234801561001057600080fd5b50600436106101cf5760003560e01c80636dcee4ca11610104578063c4d53dea116100a2578063ddca3f4311610071578063ddca3f43146105b0578063e65e2be3146105ce578063e985e9c5146105fe578063efc81a8c1461062e576101cf565b8063c4d53dea14610502578063c87b56dd14610532578063d05dcc6a14610562578063d082e38114610592576101cf565b806395d89b41116100de57806395d89b411461047c5780639c1cd7951461049a578063a22cb465146104ca578063b88d4fde146104e6576101cf565b80636dcee4ca1461040057806370a082311461043057806394985ddd14610460576101cf565b806323b872dd1161017157806342842e0e1161014b57806342842e0e1461037a57806361728f3914610396578063624194c7146103b45780636352211e146103d0576101cf565b806323b872dd146102fe578063240c8d3d1461031a57806330d871c61461034a576101cf565b8063081812fc116101ad578063081812fc14610252578063095ea7b314610282578063219c0eee1461029e57806322881f88146102ce576101cf565b806301ffc9a7146101d457806304bde4dd1461020457806306fdde0314610234575b600080fd5b6101ee60048036038101906101e99190612e4f565b61064c565b6040516101fb9190613891565b60405180910390f35b61021e60048036038101906102199190612f36565b61072e565b60405161022b9190613935565b60405180910390f35b61023c6107da565b6040516102499190613935565b60405180910390f35b61026c60048036038101906102679190612f36565b61086c565b60405161027991906137ec565b60405180910390f35b61029c60048036038101906102979190612d85565b6108b2565b005b6102b860048036038101906102b39190612dea565b6109ca565b6040516102c591906137ec565b60405180910390f35b6102e860048036038101906102e39190612dea565b6109fd565b6040516102f59190613b57565b60405180910390f35b61031860048036038101906103139190612c7f565b610a15565b005b610334600480360381019061032f9190612f36565b610a75565b6040516103419190613935565b60405180910390f35b610364600480360381019061035f9190612ea1565b610b21565b6040516103719190613935565b60405180910390f35b610394600480360381019061038f9190612c7f565b610bb4565b005b61039e610bd4565b6040516103ab91906138ac565b60405180910390f35b6103ce60048036038101906103c99190612f36565b610bda565b005b6103ea60048036038101906103e59190612f36565b610d4a565b6040516103f791906137ec565b60405180910390f35b61041a60048036038101906104159190612f36565b610dfc565b6040516104279190613935565b60405180910390f35b61044a60048036038101906104459190612c1a565b611106565b6040516104579190613b57565b60405180910390f35b61047a60048036038101906104759190612e13565b6111be565b005b61048461125a565b6040516104919190613935565b60405180910390f35b6104b460048036038101906104af9190612f36565b6112ec565b6040516104c19190613b57565b60405180910390f35b6104e460048036038101906104df9190612d49565b611304565b005b61050060048036038101906104fb9190612cce565b61131a565b005b61051c60048036038101906105179190612ee2565b61137c565b6040516105299190613935565b60405180910390f35b61054c60048036038101906105479190612f36565b6114bc565b6040516105599190613935565b60405180910390f35b61057c60048036038101906105779190612f36565b6115cf565b6040516105899190613935565b60405180910390f35b61059a61167b565b6040516105a79190613b57565b60405180910390f35b6105b8611681565b6040516105c59190613b57565b60405180910390f35b6105e860048036038101906105e39190612f36565b611687565b6040516105f59190613935565b60405180910390f35b61061860048036038101906106139190612c43565b611733565b6040516106259190613891565b60405180910390f35b6106366117c7565b60405161064391906138ac565b60405180910390f35b60007f80ac58cd000000000000000000000000000000000000000000000000000000007bffffffffffffffffffffffffffffffffffffffffffffffffffffffff1916827bffffffffffffffffffffffffffffffffffffffffffffffffffffffff1916148061071757507f5b5e139f000000000000000000000000000000000000000000000000000000007bffffffffffffffffffffffffffffffffffffffffffffffffffffffff1916827bffffffffffffffffffffffffffffffffffffffffffffffffffffffff1916145b80610727575061072682611896565b5b9050919050565b600d818154811061073e57600080fd5b90600052602060002001600091509050805461075990613e11565b80601f016020809104026020016040519081016040528092919081815260200182805461078590613e11565b80156107d25780601f106107a7576101008083540402835291602001916107d2565b820191906000526020600020905b8154815290600101906020018083116107b557829003601f168201915b505050505081565b6060600080546107e990613e11565b80601f016020809104026020016040519081016040528092919081815260200182805461081590613e11565b80156108625780601f1061083757610100808354040283529160200191610862565b820191906000526020600020905b81548152906001019060200180831161084557829003601f168201915b5050505050905090565b600061087782611900565b6004600083815260200190815260200160002060009054906101000a900473ffffffffffffffffffffffffffffffffffffffff169050919050565b60006108bd82610d4a565b90508073ffffffffffffffffffffffffffffffffffffffff168373ffffffffffffffffffffffffffffffffffffffff16141561092e576040517f08c379a000000000000000000000000000000000000000000000000000000000815260040161092590613b17565b60405180910390fd5b8073ffffffffffffffffffffffffffffffffffffffff1661094d61194b565b73ffffffffffffffffffffffffffffffffffffffff16148061097c575061097b8161097661194b565b611733565b5b6109bb576040517f08c379a00000000000000000000000000000000000000000000000000000000081526004016109b290613a77565b60405180910390fd5b6109c58383611953565b505050565b600f6020528060005260406000206000915054906101000a900473ffffffffffffffffffffffffffffffffffffffff1681565b60106020528060005260406000206000915090505481565b610a26610a2061194b565b82611a0c565b610a65576040517f08c379a0000000000000000000000000000000000000000000000000000000008152600401610a5c90613b37565b60405180910390fd5b610a70838383611aa1565b505050565b600c8181548110610a8557600080fd5b906000526020600020016000915090508054610aa090613e11565b80601f0160208091040260200160405190810160405280929190818152602001828054610acc90613e11565b8015610b195780601f10610aee57610100808354040283529160200191610b19565b820191906000526020600020905b815481529060010190602001808311610afc57829003601f168201915b505050505081565b606060006040518060400160405280601a81526020017f646174613a696d6167652f7376672b786d6c3b6261736536342c00000000000081525090506000610b8784604051602001610b739190613610565b604051602081830303815290604052611d08565b90508181604051602001610b9c929190613627565b60405160208183030381529060405292505050919050565b610bcf8383836040518060200160405280600081525061131a565b505050565b60085481565b6000610be5826114bc565b511115610c27576040517f08c379a0000000000000000000000000000000000000000000000000000000008152600401610c1e906139b7565b60405180910390fd5b80600a5411610c6b576040517f08c379a0000000000000000000000000000000000000000000000000000000008152600401610c6290613a57565b60405180910390fd5b6000601160008381526020019081526020016000205411610cc1576040517f08c379a0000000000000000000000000000000000000000000000000000000008152600401610cb890613ab7565b60405180910390fd5b6000601160008381526020019081526020016000205490506000610ce482610dfc565b90506000610cf182610b21565b90506000610cff828561137c565b9050610d0b8582611ea7565b847f15a6487b7915a7116ce2a61d43b17e9b47484b1931f3c79f2f3d139b307b389384604051610d3b9190613935565b60405180910390a25050505050565b6000806002600084815260200190815260200160002060009054906101000a900473ffffffffffffffffffffffffffffffffffffffff169050600073ffffffffffffffffffffffffffffffffffffffff168173ffffffffffffffffffffffffffffffffffffffff161415610df3576040517f08c379a0000000000000000000000000000000000000000000000000000000008152600401610dea90613af7565b60405180910390fd5b80915050919050565b60606000600d808054905084610e129190613ed1565b81548110610e49577f4e487b7100000000000000000000000000000000000000000000000000000000600052603260045260246000fd5b906000526020600020018054610e5e90613e11565b80601f0160208091040260200160405190810160405280929190818152602001828054610e8a90613e11565b8015610ed75780601f10610eac57610100808354040283529160200191610ed7565b820191906000526020600020905b815481529060010190602001808311610eba57829003601f168201915b505050505090506000600b8080549050603b86610ef49190613c3c565b610efe9190613ed1565b81548110610f35577f4e487b7100000000000000000000000000000000000000000000000000000000600052603260045260246000fd5b906000526020600020018054610f4a90613e11565b80601f0160208091040260200160405190810160405280929190818152602001828054610f7690613e11565b8015610fc35780601f10610f9857610100808354040283529160200191610fc3565b820191906000526020600020905b815481529060010190602001808311610fa657829003601f168201915b505050505090506000600c8080549050601787610fe09190613c3c565b610fea9190613ed1565b81548110611021577f4e487b7100000000000000000000000000000000000000000000000000000000600052603260045260246000fd5b90600052602060002001805461103690613e11565b80601f016020809104026020016040519081016040528092919081815260200182805461106290613e11565b80156110af5780601f10611084576101008083540402835291602001916110af565b820191906000526020600020905b81548152906001019060200180831161109257829003601f168201915b505050505090508281836040516020016110cb939291906136ea565b6040516020818303038152906040529350836040516020016110ed919061364b565b6040516020818303038152906040529350505050919050565b60008073ffffffffffffffffffffffffffffffffffffffff168273ffffffffffffffffffffffffffffffffffffffff161415611177576040517f08c379a000000000000000000000000000000000000000000000000000000000815260040161116e90613a17565b60405180910390fd5b600360008373ffffffffffffffffffffffffffffffffffffffff1673ffffffffffffffffffffffffffffffffffffffff168152602001908152602001600020549050919050565b7f000000000000000000000000000000000000000000000000000000000000000073ffffffffffffffffffffffffffffffffffffffff163373ffffffffffffffffffffffffffffffffffffffff161461124c576040517f08c379a000000000000000000000000000000000000000000000000000000000815260040161124390613ad7565b60405180910390fd5b6112568282611f1b565b5050565b60606001805461126990613e11565b80601f016020809104026020016040519081016040528092919081815260200182805461129590613e11565b80156112e25780601f106112b7576101008083540402835291602001916112e2565b820191906000526020600020905b8154815290600101906020018083116112c557829003601f168201915b5050505050905090565b60116020528060005260406000206000915090505481565b61131661130f61194b565b8383611fcb565b5050565b61132b61132561194b565b83611a0c565b61136a576040517f08c379a000000000000000000000000000000000000000000000000000000000815260040161136190613b37565b60405180910390fd5b61137684848484612138565b50505050565b60606000600e80805490506006856113949190613c3c565b61139e9190613ed1565b815481106113d5577f4e487b7100000000000000000000000000000000000000000000000000000000600052603260045260246000fd5b9060005260206000200180546113ea90613e11565b80601f016020809104026020016040519081016040528092919081815260200182805461141690613e11565b80156114635780601f1061143857610100808354040283529160200191611463565b820191906000526020600020905b81548152906001019060200180831161144657829003601f168201915b50505050509050611494818560405160200161148092919061366d565b604051602081830303815290604052611d08565b6040516020016114a491906136c8565b60405160208183030381529060405291505092915050565b60606114c782611900565b60006006600084815260200190815260200160002080546114e790613e11565b80601f016020809104026020016040519081016040528092919081815260200182805461151390613e11565b80156115605780601f1061153557610100808354040283529160200191611560565b820191906000526020600020905b81548152906001019060200180831161154357829003601f168201915b505050505090506000611571612194565b90506000815114156115875781925050506115ca565b6000825111156115bc5780826040516020016115a4929190613627565b604051602081830303815290604052925050506115ca565b6115c5846121ab565b925050505b919050565b600e81815481106115df57600080fd5b9060005260206000200160009150905080546115fa90613e11565b80601f016020809104026020016040519081016040528092919081815260200182805461162690613e11565b80156116735780601f1061164857610100808354040283529160200191611673565b820191906000526020600020905b81548152906001019060200180831161165657829003601f168201915b505050505081565b600a5481565b60095481565b600b818154811061169757600080fd5b9060005260206000200160009150905080546116b290613e11565b80601f01602080910402602001604051908101604052809291908181526020018280546116de90613e11565b801561172b5780601f106117005761010080835404028352916020019161172b565b820191906000526020600020905b81548152906001019060200180831161170e57829003601f168201915b505050505081565b6000600560008473ffffffffffffffffffffffffffffffffffffffff1673ffffffffffffffffffffffffffffffffffffffff16815260200190815260200160002060008373ffffffffffffffffffffffffffffffffffffffff1673ffffffffffffffffffffffffffffffffffffffff16815260200190815260200160002060009054906101000a900460ff16905092915050565b60006117d7600854600954612213565b905033600f600083815260200190815260200160002060006101000a81548173ffffffffffffffffffffffffffffffffffffffff021916908373ffffffffffffffffffffffffffffffffffffffff1602179055506000600a5490508060106000848152602001908152602001600020819055506001600a600082825461185d9190613c3c565b9250508190555080827fd18cd6f82baac9078af064ea020dd3dc7bff649bd8d50684f972d5995fec6e6960405160405180910390a35090565b60007f01ffc9a7000000000000000000000000000000000000000000000000000000007bffffffffffffffffffffffffffffffffffffffffffffffffffffffff1916827bffffffffffffffffffffffffffffffffffffffffffffffffffffffff1916149050919050565b61190981612375565b611948576040517f08c379a000000000000000000000000000000000000000000000000000000000815260040161193f90613af7565b60405180910390fd5b50565b600033905090565b816004600083815260200190815260200160002060006101000a81548173ffffffffffffffffffffffffffffffffffffffff021916908373ffffffffffffffffffffffffffffffffffffffff160217905550808273ffffffffffffffffffffffffffffffffffffffff166119c683610d4a565b73ffffffffffffffffffffffffffffffffffffffff167f8c5be1e5ebec7d5bd14f71427d1e84f3dd0314c0f7b2291e5b200ac8c7c3b92560405160405180910390a45050565b600080611a1883610d4a565b90508073ffffffffffffffffffffffffffffffffffffffff168473ffffffffffffffffffffffffffffffffffffffff161480611a5a5750611a598185611733565b5b80611a9857508373ffffffffffffffffffffffffffffffffffffffff16611a808461086c565b73ffffffffffffffffffffffffffffffffffffffff16145b91505092915050565b8273ffffffffffffffffffffffffffffffffffffffff16611ac182610d4a565b73ffffffffffffffffffffffffffffffffffffffff1614611b17576040517f08c379a0000000000000000000000000000000000000000000000000000000008152600401611b0e90613977565b60405180910390fd5b600073ffffffffffffffffffffffffffffffffffffffff168273ffffffffffffffffffffffffffffffffffffffff161415611b87576040517f08c379a0000000000000000000000000000000000000000000000000000000008152600401611b7e906139d7565b60405180910390fd5b611b928383836123e1565b611b9d600082611953565b6001600360008573ffffffffffffffffffffffffffffffffffffffff1673ffffffffffffffffffffffffffffffffffffffff1681526020019081526020016000206000828254611bed9190613d1d565b925050819055506001600360008473ffffffffffffffffffffffffffffffffffffffff1673ffffffffffffffffffffffffffffffffffffffff1681526020019081526020016000206000828254611c449190613c3c565b92505081905550816002600083815260200190815260200160002060006101000a81548173ffffffffffffffffffffffffffffffffffffffff021916908373ffffffffffffffffffffffffffffffffffffffff160217905550808273ffffffffffffffffffffffffffffffffffffffff168473ffffffffffffffffffffffffffffffffffffffff167fddf252ad1be2c89b69c2b068fc378daa952ba7f163c4a11628f55a4df523b3ef60405160405180910390a4611d038383836123e6565b505050565b6060600082511415611d2b57604051806020016040528060008152509050611ea2565b60006040518060600160405280604081526020016148996040913990506000600360028551611d5a9190613c3c565b611d649190613c92565b6004611d709190613cc3565b90506000602082611d819190613c3c565b67ffffffffffffffff811115611dc0577f4e487b7100000000000000000000000000000000000000000000000000000000600052604160045260246000fd5b6040519080825280601f01601f191660200182016040528015611df25781602001600182028036833780820191505090505b509050818152600183018586518101602084015b81831015611e61576003830192508251603f8160121c168501518253600182019150603f81600c1c168501518253600182019150603f8160061c168501518253600182019150603f8116850151825360018201915050611e06565b600389510660018114611e7b5760028114611e8b57611e96565b613d3d60f01b6002830352611e96565b603d60f81b60018303525b50505050508093505050505b919050565b611eb082612375565b611eef576040517f08c379a0000000000000000000000000000000000000000000000000000000008152600401611ee690613a37565b60405180910390fd5b80600660008481526020019081526020016000209080519060200190611f16929190612a14565b505050565b6000600f600084815260200190815260200160002060009054906101000a900473ffffffffffffffffffffffffffffffffffffffff169050600060106000858152602001908152602001600020549050611f7582826123eb565b826011600083815260200190815260200160002081905550807faad5362ce528ed941024b95d4c18dfd49b8503e1f586a5c353631d98c2af41b784604051611fbd9190613b57565b60405180910390a250505050565b8173ffffffffffffffffffffffffffffffffffffffff168373ffffffffffffffffffffffffffffffffffffffff16141561203a576040517f08c379a0000000000000000000000000000000000000000000000000000000008152600401612031906139f7565b60405180910390fd5b80600560008573ffffffffffffffffffffffffffffffffffffffff1673ffffffffffffffffffffffffffffffffffffffff16815260200190815260200160002060008473ffffffffffffffffffffffffffffffffffffffff1673ffffffffffffffffffffffffffffffffffffffff16815260200190815260200160002060006101000a81548160ff0219169083151502179055508173ffffffffffffffffffffffffffffffffffffffff168373ffffffffffffffffffffffffffffffffffffffff167f17307eab39ab6107e8899845ad3d59bd9653f200f220920489ca2b5937696c318360405161212b9190613891565b60405180910390a3505050565b612143848484611aa1565b61214f84848484612409565b61218e576040517f08c379a000000000000000000000000000000000000000000000000000000000815260040161218590613957565b60405180910390fd5b50505050565b606060405180602001604052806000815250905090565b60606121b682611900565b60006121c0612194565b905060008151116121e0576040518060200160405280600081525061220b565b806121ea846125a0565b6040516020016121fb929190613627565b6040516020818303038152906040525b915050919050565b60007f000000000000000000000000000000000000000000000000000000000000000073ffffffffffffffffffffffffffffffffffffffff16634000aea07f0000000000000000000000000000000000000000000000000000000000000000848660006040516020016122879291906138c7565b6040516020818303038152906040526040518463ffffffff1660e01b81526004016122b493929190613853565b602060405180830381600087803b1580156122ce57600080fd5b505af11580156122e2573d6000803e3d6000fd5b505050506040513d601f19601f820116820180604052508101906123069190612dc1565b50600061232984600030600760008981526020019081526020016000205461274d565b90506001600760008681526020019081526020016000205461234b9190613c3c565b600760008681526020019081526020016000208190555061236c8482612789565b91505092915050565b60008073ffffffffffffffffffffffffffffffffffffffff166002600084815260200190815260200160002060009054906101000a900473ffffffffffffffffffffffffffffffffffffffff1673ffffffffffffffffffffffffffffffffffffffff1614159050919050565b505050565b505050565b6124058282604051806020016040528060008152506127bc565b5050565b600061242a8473ffffffffffffffffffffffffffffffffffffffff16612817565b15612593578373ffffffffffffffffffffffffffffffffffffffff1663150b7a0261245361194b565b8786866040518563ffffffff1660e01b81526004016124759493929190613807565b602060405180830381600087803b15801561248f57600080fd5b505af19250505080156124c057506040513d601f19601f820116820180604052508101906124bd9190612e78565b60015b612543573d80600081146124f0576040519150601f19603f3d011682016040523d82523d6000602084013e6124f5565b606091505b5060008151141561253b576040517f08c379a000000000000000000000000000000000000000000000000000000000815260040161253290613957565b60405180910390fd5b805181602001fd5b63150b7a0260e01b7bffffffffffffffffffffffffffffffffffffffffffffffffffffffff1916817bffffffffffffffffffffffffffffffffffffffffffffffffffffffff191614915050612598565b600190505b949350505050565b606060008214156125e8576040518060400160405280600181526020017f30000000000000000000000000000000000000000000000000000000000000008152509050612748565b600082905060005b6000821461261a57808061260390613e74565b915050600a826126139190613c92565b91506125f0565b60008167ffffffffffffffff81111561265c577f4e487b7100000000000000000000000000000000000000000000000000000000600052604160045260246000fd5b6040519080825280601f01601f19166020018201604052801561268e5781602001600182028036833780820191505090505b5090505b60008514612741576001826126a79190613d1d565b9150600a856126b69190613ed1565b60306126c29190613c3c565b60f81b8183815181106126fe577f4e487b7100000000000000000000000000000000000000000000000000000000600052603260045260246000fd5b60200101907effffffffffffffffffffffffffffffffffffffffffffffffffffffffffffff1916908160001a905350600a8561273a9190613c92565b9450612692565b8093505050505b919050565b60008484848460405160200161276694939291906138f0565b6040516020818303038152906040528051906020012060001c9050949350505050565b6000828260405160200161279e9291906135e4565b60405160208183030381529060405280519060200120905092915050565b6127c6838361283a565b6127d36000848484612409565b612812576040517f08c379a000000000000000000000000000000000000000000000000000000000815260040161280990613957565b60405180910390fd5b505050565b6000808273ffffffffffffffffffffffffffffffffffffffff163b119050919050565b600073ffffffffffffffffffffffffffffffffffffffff168273ffffffffffffffffffffffffffffffffffffffff1614156128aa576040517f08c379a00000000000000000000000000000000000000000000000000000000081526004016128a190613a97565b60405180910390fd5b6128b381612375565b156128f3576040517f08c379a00000000000000000000000000000000000000000000000000000000081526004016128ea90613997565b60405180910390fd5b6128ff600083836123e1565b6001600360008473ffffffffffffffffffffffffffffffffffffffff1673ffffffffffffffffffffffffffffffffffffffff168152602001908152602001600020600082825461294f9190613c3c565b92505081905550816002600083815260200190815260200160002060006101000a81548173ffffffffffffffffffffffffffffffffffffffff021916908373ffffffffffffffffffffffffffffffffffffffff160217905550808273ffffffffffffffffffffffffffffffffffffffff16600073ffffffffffffffffffffffffffffffffffffffff167fddf252ad1be2c89b69c2b068fc378daa952ba7f163c4a11628f55a4df523b3ef60405160405180910390a4612a10600083836123e6565b5050565b828054612a2090613e11565b90600052602060002090601f016020900481019282612a425760008555612a89565b82601f10612a5b57805160ff1916838001178555612a89565b82800160010185558215612a89579182015b82811115612a88578251825591602001919060010190612a6d565b5b509050612a969190612a9a565b5090565b5b80821115612ab3576000816000905550600101612a9b565b5090565b6000612aca612ac584613b97565b613b72565b905082815260208101848484011115612ae257600080fd5b612aed848285613dcf565b509392505050565b6000612b08612b0384613bc8565b613b72565b905082815260208101848484011115612b2057600080fd5b612b2b848285613dcf565b509392505050565b600081359050612b4281614825565b92915050565b600081359050612b578161483c565b92915050565b600081519050612b6c8161483c565b92915050565b600081359050612b8181614853565b92915050565b600081359050612b968161486a565b92915050565b600081519050612bab8161486a565b92915050565b600082601f830112612bc257600080fd5b8135612bd2848260208601612ab7565b91505092915050565b600082601f830112612bec57600080fd5b8135612bfc848260208601612af5565b91505092915050565b600081359050612c1481614881565b92915050565b600060208284031215612c2c57600080fd5b6000612c3a84828501612b33565b91505092915050565b60008060408385031215612c5657600080fd5b6000612c6485828601612b33565b9250506020612c7585828601612b33565b9150509250929050565b600080600060608486031215612c9457600080fd5b6000612ca286828701612b33565b9350506020612cb386828701612b33565b9250506040612cc486828701612c05565b9150509250925092565b60008060008060808587031215612ce457600080fd5b6000612cf287828801612b33565b9450506020612d0387828801612b33565b9350506040612d1487828801612c05565b925050606085013567ffffffffffffffff811115612d3157600080fd5b612d3d87828801612bb1565b91505092959194509250565b60008060408385031215612d5c57600080fd5b6000612d6a85828601612b33565b9250506020612d7b85828601612b48565b9150509250929050565b60008060408385031215612d9857600080fd5b6000612da685828601612b33565b9250506020612db785828601612c05565b9150509250929050565b600060208284031215612dd357600080fd5b6000612de184828501612b5d565b91505092915050565b600060208284031215612dfc57600080fd5b6000612e0a84828501612b72565b91505092915050565b60008060408385031215612e2657600080fd5b6000612e3485828601612b72565b9250506020612e4585828601612c05565b9150509250929050565b600060208284031215612e6157600080fd5b6000612e6f84828501612b87565b91505092915050565b600060208284031215612e8a57600080fd5b6000612e9884828501612b9c565b91505092915050565b600060208284031215612eb357600080fd5b600082013567ffffffffffffffff811115612ecd57600080fd5b612ed984828501612bdb565b91505092915050565b60008060408385031215612ef557600080fd5b600083013567ffffffffffffffff811115612f0f57600080fd5b612f1b85828601612bdb565b9250506020612f2c85828601612c05565b9150509250929050565b600060208284031215612f4857600080fd5b6000612f5684828501612c05565b91505092915050565b612f6881613d51565b82525050565b612f7781613d63565b82525050565b612f8681613d6f565b82525050565b612f9d612f9882613d6f565b613ebd565b82525050565b6000612fae82613bf9565b612fb88185613c0f565b9350612fc8818560208601613dde565b612fd181613fbe565b840191505092915050565b6000612fe782613c04565b612ff18185613c20565b9350613001818560208601613dde565b61300a81613fbe565b840191505092915050565b600061302082613c04565b61302a8185613c31565b935061303a818560208601613dde565b80840191505092915050565b6000613053600e83613c31565b915061305e82613fcf565b600e82019050919050565b6000613076600383613c31565b915061308182613ff8565b600382019050919050565b6000613099600983613c31565b91506130a482614021565b600982019050919050565b60006130bc603283613c20565b91506130c78261404a565b604082019050919050565b60006130df602583613c20565b91506130ea82614099565b604082019050919050565b6000613102601c83613c20565b915061310d826140e8565b602082019050919050565b6000613125601683613c20565b915061313082614111565b602082019050919050565b6000613148600e83613c31565b91506131538261413a565b600e82019050919050565b600061316b601a83613c31565b915061317682614163565b601a82019050919050565b600061318e602483613c20565b91506131998261418c565b604082019050919050565b60006131b1601983613c20565b91506131bc826141db565b602082019050919050565b60006131d4601383613c31565b91506131df82614204565b601382019050919050565b60006131f7600a83613c31565b91506132028261422d565b600a82019050919050565b600061321a600883613c31565b915061322582614256565b600882019050919050565b600061323d601883613c31565b91506132488261427f565b601882019050919050565b6000613260602983613c20565b915061326b826142a8565b604082019050919050565b6000613283602e83613c20565b915061328e826142f7565b604082019050919050565b60006132a6602083613c20565b91506132b182614346565b602082019050919050565b60006132c9600383613c31565b91506132d48261436f565b600382019050919050565b60006132ec600283613c31565b91506132f782614398565b600282019050919050565b600061330f603e83613c20565b915061331a826143c1565b604082019050919050565b6000613332602083613c20565b915061333d82614410565b602082019050919050565b6000613355603e83613c20565b915061336082614439565b604082019050919050565b6000613378600883613c31565b915061338382614488565b600882019050919050565b600061339b600883613c31565b91506133a6826144b1565b600882019050919050565b60006133be600a83613c31565b91506133c9826144da565b600a82019050919050565b60006133e1601f83613c20565b91506133ec82614503565b602082019050919050565b6000613404600e83613c31565b915061340f8261452c565b600e82019050919050565b6000613427601883613c20565b915061343282614555565b602082019050919050565b600061344a602183613c20565b91506134558261457e565b604082019050919050565b600061346d600683613c31565b9150613478826145cd565b600682019050919050565b6000613490601d83613c31565b915061349b826145f6565b601d82019050919050565b60006134b3603183613c31565b91506134be8261461f565b603182019050919050565b60006134d6600883613c31565b91506134e18261466e565b600882019050919050565b60006134f9600783613c31565b915061350482614697565b600782019050919050565b600061351c606183613c31565b9150613527826146c0565b606182019050919050565b600061353f602e83613c20565b915061354a8261475b565b604082019050919050565b6000613562600683613c31565b915061356d826147aa565b600682019050919050565b6000613585600883613c31565b9150613590826147d3565b600882019050919050565b60006135a8600983613c31565b91506135b3826147fc565b600982019050919050565b6135c781613dc5565b82525050565b6135de6135d982613dc5565b613ec7565b82525050565b60006135f08285612f8c565b60208201915061360082846135cd565b6020820191508190509392505050565b600061361c8284613015565b915081905092915050565b60006136338285613015565b915061363f8284613015565b91508190509392505050565b60006136578284613015565b915061366282613555565b915081905092915050565b60006136788261308c565b915061368382613230565b915061368e8261350f565b915061369a8285613015565b91506136a5826133f7565b91506136b18284613015565b91506136bc826132df565b91508190509392505050565b60006136d382613483565b91506136df8284613015565b915081905092915050565b60006136f5826134a6565b915061370082613069565b915061370b8261359b565b915061371682613069565b915061372182613046565b915061372d8286613015565b9150613738826133b1565b9150613743826132bc565b915061374e826131ea565b915061375982613069565b91506137648261315e565b915061376f826134c9565b915061377a8261338e565b915061378582613578565b91506137908261336b565b915061379b826134ec565b91506137a682613460565b91506137b18261313b565b91506137bd8285613015565b91506137c88261320d565b91506137d48284613015565b91506137df826131c7565b9150819050949350505050565b60006020820190506138016000830184612f5f565b92915050565b600060808201905061381c6000830187612f5f565b6138296020830186612f5f565b61383660408301856135be565b81810360608301526138488184612fa3565b905095945050505050565b60006060820190506138686000830186612f5f565b61387560208301856135be565b81810360408301526138878184612fa3565b9050949350505050565b60006020820190506138a66000830184612f6e565b92915050565b60006020820190506138c16000830184612f7d565b92915050565b60006040820190506138dc6000830185612f7d565b6138e960208301846135be565b9392505050565b60006080820190506139056000830187612f7d565b61391260208301866135be565b61391f6040830185612f5f565b61392c60608301846135be565b95945050505050565b6000602082019050818103600083015261394f8184612fdc565b905092915050565b60006020820190508181036000830152613970816130af565b9050919050565b60006020820190508181036000830152613990816130d2565b9050919050565b600060208201905081810360008301526139b0816130f5565b9050919050565b600060208201905081810360008301526139d081613118565b9050919050565b600060208201905081810360008301526139f081613181565b9050919050565b60006020820190508181036000830152613a10816131a4565b9050919050565b60006020820190508181036000830152613a3081613253565b9050919050565b60006020820190508181036000830152613a5081613276565b9050919050565b60006020820190508181036000830152613a7081613299565b9050919050565b60006020820190508181036000830152613a9081613302565b9050919050565b60006020820190508181036000830152613ab081613325565b9050919050565b60006020820190508181036000830152613ad081613348565b9050919050565b60006020820190508181036000830152613af0816133d4565b9050919050565b60006020820190508181036000830152613b108161341a565b9050919050565b60006020820190508181036000830152613b308161343d565b9050919050565b60006020820190508181036000830152613b5081613532565b9050919050565b6000602082019050613b6c60008301846135be565b92915050565b6000613b7c613b8d565b9050613b888282613e43565b919050565b6000604051905090565b600067ffffffffffffffff821115613bb257613bb1613f8f565b5b613bbb82613fbe565b9050602081019050919050565b600067ffffffffffffffff821115613be357613be2613f8f565b5b613bec82613fbe565b9050602081019050919050565b600081519050919050565b600081519050919050565b600082825260208201905092915050565b600082825260208201905092915050565b600081905092915050565b6000613c4782613dc5565b9150613c5283613dc5565b9250827fffffffffffffffffffffffffffffffffffffffffffffffffffffffffffffffff03821115613c8757613c86613f02565b5b828201905092915050565b6000613c9d82613dc5565b9150613ca883613dc5565b925082613cb857613cb7613f31565b5b828204905092915050565b6000613cce82613dc5565b9150613cd983613dc5565b9250817fffffffffffffffffffffffffffffffffffffffffffffffffffffffffffffffff0483118215151615613d1257613d11613f02565b5b828202905092915050565b6000613d2882613dc5565b9150613d3383613dc5565b925082821015613d4657613d45613f02565b5b828203905092915050565b6000613d5c82613da5565b9050919050565b60008115159050919050565b6000819050919050565b60007fffffffff0000000000000000000000000000000000000000000000000000000082169050919050565b600073ffffffffffffffffffffffffffffffffffffffff82169050919050565b6000819050919050565b82818337600083830152505050565b60005b83811015613dfc578082015181840152602081019050613de1565b83811115613e0b576000848401525b50505050565b60006002820490506001821680613e2957607f821691505b60208210811415613e3d57613e3c613f60565b5b50919050565b613e4c82613fbe565b810181811067ffffffffffffffff82111715613e6b57613e6a613f8f565b5b80604052505050565b6000613e7f82613dc5565b91507fffffffffffffffffffffffffffffffffffffffffffffffffffffffffffffffff821415613eb257613eb1613f02565b5b600182019050919050565b6000819050919050565b6000819050919050565b6000613edc82613dc5565b9150613ee783613dc5565b925082613ef757613ef6613f31565b5b828206905092915050565b7f4e487b7100000000000000000000000000000000000000000000000000000000600052601160045260246000fd5b7f4e487b7100000000000000000000000000000000000000000000000000000000600052601260045260246000fd5b7f4e487b7100000000000000000000000000000000000000000000000000000000600052602260045260246000fd5b7f4e487b7100000000000000000000000000000000000000000000000000000000600052604160045260246000fd5b6000601f19601f8301169050919050565b7f273e3c726563742066696c6c3d27000000000000000000000000000000000000600082015250565b7f3530300000000000000000000000000000000000000000000000000000000000600082015250565b7f7b226e616d65223a220000000000000000000000000000000000000000000000600082015250565b7f4552433732313a207472616e7366657220746f206e6f6e20455243373231526560008201527f63656976657220696d706c656d656e7465720000000000000000000000000000602082015250565b7f4552433732313a207472616e736665722066726f6d20696e636f72726563742060008201527f6f776e6572000000000000000000000000000000000000000000000000000000602082015250565b7f4552433732313a20746f6b656e20616c7265616479206d696e74656400000000600082015250565b7f546f6b656e2055524920616c7265616479207365742100000000000000000000600082015250565b7f27207374796c653d2766696c6c3a000000000000000000000000000000000000600082015250565b7f273e3c2f726563743e3c706f6c79676f6e20706f696e74733d27000000000000600082015250565b7f4552433732313a207472616e7366657220746f20746865207a65726f2061646460008201527f7265737300000000000000000000000000000000000000000000000000000000602082015250565b7f4552433732313a20617070726f766520746f2063616c6c657200000000000000600082015250565b7f3b7374726f6b652d77696474683a3227202f3e00000000000000000000000000600082015250565b7f272077696474683d202700000000000000000000000000000000000000000000600082015250565b7f3b7374726f6b653a000000000000000000000000000000000000000000000000600082015250565b7f412047656e65726174697665205356472048657861676f6e0000000000000000600082015250565b7f4552433732313a2061646472657373207a65726f206973206e6f74206120766160008201527f6c6964206f776e65720000000000000000000000000000000000000000000000602082015250565b7f45524337323155524953746f726167653a2055524920736574206f66206e6f6e60008201527f6578697374656e7420746f6b656e000000000000000000000000000000000000602082015250565b7f546f6b656e496420686173206e6f74206265656e206d696e7465642079657421600082015250565b7f3235300000000000000000000000000000000000000000000000000000000000600082015250565b7f227d000000000000000000000000000000000000000000000000000000000000600082015250565b7f4552433732313a20617070726f76652063616c6c6572206973206e6f7420746f60008201527f6b656e206f776e6572206e6f7220617070726f76656420666f7220616c6c0000602082015250565b7f4552433732313a206d696e7420746f20746865207a65726f2061646472657373600082015250565b7f5468657265206973206e6f204e465420666f72207468697320746f6b656e496460008201527f206f72207761697420666f722074686520436861696e6c696e6b205652460000602082015250565b7f3330302c31323520000000000000000000000000000000000000000000000000600082015250565b7f3233332c31363520000000000000000000000000000000000000000000000000600082015250565b7f27206865696768743d2700000000000000000000000000000000000000000000600082015250565b7f4f6e6c7920565246436f6f7264696e61746f722063616e2066756c66696c6c00600082015250565b7f227d5d2c2022696d616765223a22000000000000000000000000000000000000600082015250565b7f4552433732313a20696e76616c696420746f6b656e2049440000000000000000600082015250565b7f4552433732313a20617070726f76616c20746f2063757272656e74206f776e6560008201527f7200000000000000000000000000000000000000000000000000000000000000602082015250565b7f3233332c38350000000000000000000000000000000000000000000000000000600082015250565b7f646174613a6170706c69636174696f6e2f6a736f6e3b6261736536342c000000600082015250565b7f3c73766720786d6c6e733d2027687474703a2f2f7777772e77332e6f72672f3260008201527f3030302f73766727206865696768743d27000000000000000000000000000000602082015250565b7f3230302c31323520000000000000000000000000000000000000000000000000600082015250565b7f3236372c38352000000000000000000000000000000000000000000000000000600082015250565b7f222c20226465736372697074696f6e223a22412066756c6c79206f6e2d63686160008201527f696e2048657861676f6e204e465421222c202261747472696275746573223a5b60208201527f7b2274726169745f74797065223a202242617365222c202276616c7565223a2060408201527f2200000000000000000000000000000000000000000000000000000000000000606082015250565b7f4552433732313a2063616c6c6572206973206e6f7420746f6b656e206f776e6560008201527f72206e6f7220617070726f766564000000000000000000000000000000000000602082015250565b7f3c2f7376673e0000000000000000000000000000000000000000000000000000600082015250565b7f3236372c31363520000000000000000000000000000000000000000000000000600082015250565b7f272077696474683d270000000000000000000000000000000000000000000000600082015250565b61482e81613d51565b811461483957600080fd5b50565b61484581613d63565b811461485057600080fd5b50565b61485c81613d6f565b811461486757600080fd5b50565b61487381613d79565b811461487e57600080fd5b50565b61488a81613dc5565b811461489557600080fd5b5056fe4142434445464748494a4b4c4d4e4f505152535455565758595a6162636465666768696a6b6c6d6e6f707172737475767778797a303132333435363738392b2fa2646970667358221220c76ea31c2920d31dae2fa1e6fa17c6d7cd20d84f289c9fe56be76a6930e8b0f064736f6c63430008010033",
  "devdoc": {
    "kind": "dev",
    "methods": {
      "approve(address,uint256)": {
        "details": "See {IERC721-approve}."
      },
      "balanceOf(address)": {
        "details": "See {IERC721-balanceOf}."
      },
      "getApproved(uint256)": {
        "details": "See {IERC721-getApproved}."
      },
      "isApprovedForAll(address,address)": {
        "details": "See {IERC721-isApprovedForAll}."
      },
      "name()": {
        "details": "See {IERC721Metadata-name}."
      },
      "ownerOf(uint256)": {
        "details": "See {IERC721-ownerOf}."
      },
      "safeTransferFrom(address,address,uint256)": {
        "details": "See {IERC721-safeTransferFrom}."
      },
      "safeTransferFrom(address,address,uint256,bytes)": {
        "details": "See {IERC721-safeTransferFrom}."
      },
      "setApprovalForAll(address,bool)": {
        "details": "See {IERC721-setApprovalForAll}."
      },
      "supportsInterface(bytes4)": {
        "details": "See {IERC165-supportsInterface}."
      },
      "symbol()": {
        "details": "See {IERC721Metadata-symbol}."
      },
      "tokenURI(uint256)": {
        "details": "See {IERC721Metadata-tokenURI}."
      },
      "transferFrom(address,address,uint256)": {
        "details": "See {IERC721-transferFrom}."
      }
    },
    "version": 1
  },
  "userdoc": {
    "kind": "user",
    "methods": {},
    "version": 1
  },
  "storageLayout": {
    "storage": [
      {
        "astId": 291,
        "contract": "contracts/RandomHexagon.sol:RandomHexagon",
        "label": "_name",
        "offset": 0,
        "slot": "0",
        "type": "t_string_storage"
      },
      {
        "astId": 293,
        "contract": "contracts/RandomHexagon.sol:RandomHexagon",
        "label": "_symbol",
        "offset": 0,
        "slot": "1",
        "type": "t_string_storage"
      },
      {
        "astId": 297,
        "contract": "contracts/RandomHexagon.sol:RandomHexagon",
        "label": "_owners",
        "offset": 0,
        "slot": "2",
        "type": "t_mapping(t_uint256,t_address)"
      },
      {
        "astId": 301,
        "contract": "contracts/RandomHexagon.sol:RandomHexagon",
        "label": "_balances",
        "offset": 0,
        "slot": "3",
        "type": "t_mapping(t_address,t_uint256)"
      },
      {
        "astId": 305,
        "contract": "contracts/RandomHexagon.sol:RandomHexagon",
        "label": "_tokenApprovals",
        "offset": 0,
        "slot": "4",
        "type": "t_mapping(t_uint256,t_address)"
      },
      {
        "astId": 311,
        "contract": "contracts/RandomHexagon.sol:RandomHexagon",
        "label": "_operatorApprovals",
        "offset": 0,
        "slot": "5",
        "type": "t_mapping(t_address,t_mapping(t_address,t_bool))"
      },
      {
        "astId": 1279,
        "contract": "contracts/RandomHexagon.sol:RandomHexagon",
        "label": "_tokenURIs",
        "offset": 0,
        "slot": "6",
        "type": "t_mapping(t_uint256,t_string_storage)"
      },
      {
        "astId": 79,
        "contract": "contracts/RandomHexagon.sol:RandomHexagon",
        "label": "nonces",
        "offset": 0,
        "slot": "7",
        "type": "t_mapping(t_bytes32,t_uint256)"
      },
      {
        "astId": 2123,
        "contract": "contracts/RandomHexagon.sol:RandomHexagon",
        "label": "keyHash",
        "offset": 0,
        "slot": "8",
        "type": "t_bytes32"
      },
      {
        "astId": 2125,
        "contract": "contracts/RandomHexagon.sol:RandomHexagon",
        "label": "fee",
        "offset": 0,
        "slot": "9",
        "type": "t_uint256"
      },
      {
        "astId": 2127,
        "contract": "contracts/RandomHexagon.sol:RandomHexagon",
        "label": "tokenCounter",
        "offset": 0,
        "slot": "10",
        "type": "t_uint256"
      },
      {
        "astId": 2130,
        "contract": "contracts/RandomHexagon.sol:RandomHexagon",
        "label": "strokes",
        "offset": 0,
        "slot": "11",
        "type": "t_array(t_string_storage)dyn_storage"
      },
      {
        "astId": 2133,
        "contract": "contracts/RandomHexagon.sol:RandomHexagon",
        "label": "fills",
        "offset": 0,
        "slot": "12",
        "type": "t_array(t_string_storage)dyn_storage"
      },
      {
        "astId": 2136,
        "contract": "contracts/RandomHexagon.sol:RandomHexagon",
        "label": "backgrounds",
        "offset": 0,
        "slot": "13",
        "type": "t_array(t_string_storage)dyn_storage"
      },
      {
        "astId": 2139,
        "contract": "contracts/RandomHexagon.sol:RandomHexagon",
        "label": "attributes",
        "offset": 0,
        "slot": "14",
        "type": "t_array(t_string_storage)dyn_storage"
      },
      {
        "astId": 2143,
        "contract": "contracts/RandomHexagon.sol:RandomHexagon",
        "label": "requestIdToSender",
        "offset": 0,
        "slot": "15",
        "type": "t_mapping(t_bytes32,t_address)"
      },
      {
        "astId": 2147,
        "contract": "contracts/RandomHexagon.sol:RandomHexagon",
        "label": "requestIdToTokenId",
        "offset": 0,
        "slot": "16",
        "type": "t_mapping(t_bytes32,t_uint256)"
      },
      {
        "astId": 2151,
        "contract": "contracts/RandomHexagon.sol:RandomHexagon",
        "label": "tokenIdToRandomNumber",
        "offset": 0,
        "slot": "17",
        "type": "t_mapping(t_uint256,t_uint256)"
      }
    ],
    "types": {
      "t_address": {
        "encoding": "inplace",
        "label": "address",
        "numberOfBytes": "20"
      },
      "t_array(t_string_storage)dyn_storage": {
        "base": "t_string_storage",
        "encoding": "dynamic_array",
        "label": "string[]",
        "numberOfBytes": "32"
      },
      "t_bool": {
        "encoding": "inplace",
        "label": "bool",
        "numberOfBytes": "1"
      },
      "t_bytes32": {
        "encoding": "inplace",
        "label": "bytes32",
        "numberOfBytes": "32"
      },
      "t_mapping(t_address,t_bool)": {
        "encoding": "mapping",
        "key": "t_address",
        "label": "mapping(address => bool)",
        "numberOfBytes": "32",
        "value": "t_bool"
      },
      "t_mapping(t_address,t_mapping(t_address,t_bool))": {
        "encoding": "mapping",
        "key": "t_address",
        "label": "mapping(address => mapping(address => bool))",
        "numberOfBytes": "32",
        "value": "t_mapping(t_address,t_bool)"
      },
      "t_mapping(t_address,t_uint256)": {
        "encoding": "mapping",
        "key": "t_address",
        "label": "mapping(address => uint256)",
        "numberOfBytes": "32",
        "value": "t_uint256"
      },
      "t_mapping(t_bytes32,t_address)": {
        "encoding": "mapping",
        "key": "t_bytes32",
        "label": "mapping(bytes32 => address)",
        "numberOfBytes": "32",
        "value": "t_address"
      },
      "t_mapping(t_bytes32,t_uint256)": {
        "encoding": "mapping",
        "key": "t_bytes32",
        "label": "mapping(bytes32 => uint256)",
        "numberOfBytes": "32",
        "value": "t_uint256"
      },
      "t_mapping(t_uint256,t_address)": {
        "encoding": "mapping",
        "key": "t_uint256",
        "label": "mapping(uint256 => address)",
        "numberOfBytes": "32",
        "value": "t_address"
      },
      "t_mapping(t_uint256,t_string_storage)": {
        "encoding": "mapping",
        "key": "t_uint256",
        "label": "mapping(uint256 => string)",
        "numberOfBytes": "32",
        "value": "t_string_storage"
      },
      "t_mapping(t_uint256,t_uint256)": {
        "encoding": "mapping",
        "key": "t_uint256",
        "label": "mapping(uint256 => uint256)",
        "numberOfBytes": "32",
        "value": "t_uint256"
      },
      "t_string_storage": {
        "encoding": "bytes",
        "label": "string",
        "numberOfBytes": "32"
      },
      "t_uint256": {
        "encoding": "inplace",
        "label": "uint256",
        "numberOfBytes": "32"
      }
    }
  }
}